:100000000C94BC000C9402050C942B050C94E40099
:100010000C94E4000C94E4000C94E4000C94E400D0
:100020000C94E4000C948E080C94E4000C943406B8
:100030000C94E4000C9410070C94E4050C94E40078
:100040000C94E4000C94E4000C94A5080C94E400D7
:100050000C94E4000C94890F0C94E4000C94E400DC
:100060000C94A20B0C94E4006E616E00696E660045
:1000700053504920736179732E2E2E0000407A1060
:10008000F35A00A0724E18090010A5D4E80000E849
:100090007648170000E40B54020000CA9A3B0000A7
:1000A00000E1F505000080969800000040420F0036
:1000B0000000A08601000000102700000000E803F7
:1000C000000000006400000000000A0000000000C2
:1000D0000100000000002C76D888DC674F0823DF81
:1000E000C1DFAE59E1B1B796E5E3E453C63AE65154
:1000F000997696E8E6C28426EB898C9B62ED407C7B
:100100006FFCEFBC9C9F40F2BAA56FA5F490055A16
:100110002AF75C936B6CF9676DC11BFCE0E40D473B
:10012000FEF520E6B500D0ED902E0300943577055E
:100130000080841E080000204E0A000000C80C3316
:100140003333330F986E12831141EF8D2114893BA5
:10015000E65516CFFEE6DB18D1844B381BF77C1D25
:10016000901DA4BBE424203284725E228100C9F178
:1001700024ECA1E53D27E01C11241FBECFEFD8E001
:10018000DEBFCDBF11E0A0E0B1E0E8EDF6E402C0D3
:1001900005900D92A233B107D9F723E0A2E3B1E0B5
:1001A00001C01D92A530B207E1F711E0C8E7D1E028
:1001B00004C02297FE010E94551DC637D107C9F71A
:1001C0000E94701C0C946A230C9400000E94A605E7
:1001D00008950E94B60508950E94A60508950E94FC
:1001E000B60508950E94A60508950E94B6050895D3
:1001F0000E94A60508950E94B60508959B0160E03F
:1002000040E00E946B0608959B0161E040E00E947F
:100210006B0608959B0160E041E00E946B06089523
:100220000E94E80608950E94490708950E94AC07BD
:1002300008950E94CF0508950E94D10508950E9457
:10024000DE0508950E94E20508950E940D060895B6
:100250000E94270608950E94BD0708950E9408087D
:1002600008950E940D0808950E94100808950E94A4
:1002700013080895BC0188EE93E00E94D507089505
:100280000E94180808950E94340808950E94850865
:10029000089541E00E946E08089540E00E946E08B3
:1002A00008950E94CA0508950E949D0508950E9420
:1002B000A10508950E94980508950F931F938C013E
:1002C0000E949A05F80193838283619370831F9142
:1002D0000F9108950E941404089561700E944504CE
:1002E000089561700E94870408950E94830D089507
:1002F0000E94A70E08950E94DA0E08958AE591E003
:10030000089561EE7AE784E99FE308950E942E0F35
:1003100008950E94040F08950E94EF0F08950E940F
:10032000351008958AE591E0089561EE7AE784E951
:100330009FE308950E94721008950E94DE100895B0
:100340000E94540508950E946E0508950E94740548
:1003500008950E94920508950E94EA0408950E945B
:10036000F00408950E94EC0408950E94F204089598
:100370000E94EE0408950E94F40408950E94F60479
:1003800008950E94FC0408950E94F80408950E94B4
:10039000FE0408950E94FA0408950E94000508953D
:1003A0000E941B1108950F934170217000E00E947C
:1003B000A1110F9108950E94341108950E947A1599
:1003C00008950E945C1108950F934170217001E01F
:1003D0000E94A1119C0140E050E0BA01CA010F91B6
:1003E00008950E94E11208950E945C1208950E94EF
:1003F000CD1208950E94EE1208950E9435130895BB
:100400000E94E708089581E008950F93A0E0B0E00E
:10041000E1E02A173B074A075B076A077B078A0761
:100420009B0709F0E0E0E170E03039F4017088EEFC
:1004300093E0B901402F0E9421090F91089581E0B6
:1004400008950F93A0E0B0E0E1E02A173B074A07C8
:100450005B076A077B078A079B0709F0E0E0E1700A
:10046000E03039F4017088EE93E0B901402F0E942A
:1004700042090F9108950E941A09089581E0089594
:100480001F93142F0E941808BC01117088EE93E08E
:10049000412F0E9442091F91089581E008951F9302
:1004A000162FBC0195958795959587959595879578
:1004B0009595879595958795959587959595879524
:1004C0009595879595958795959587959595879514
:1004D0009595879595958795959587959595879504
:1004E0000E941808BC01117088EE93E0412F0E9411
:1004F00042091F91089581E008951F93162F682FD8
:10050000782F770F770BCB019595879595958795E4
:1005100095958795959587959595879595958795C3
:1005200095958795959587959595879595958795B3
:1005300095958795959587959595879595958795A3
:10054000959587950E941808BC01117088EE93E07C
:10055000412F0E9442091F91089581E008951F9341
:10056000162FBC0180E090E00E941808BC011170B9
:1005700088EE93E0412F0E9442091F91089581E087
:1005800008951F93162F682F772780E090E00E9430
:100590001808BC01117088EE93E0412F0E944209B7
:1005A0001F91089581E008951F93142F0E9434082D
:1005B000BC01117088EE93E0412F0E9442091F9107
:1005C00008950E94620908950E946D09089541707E
:1005D0000E948A09089581E00E94B909089580E087
:1005E0000E94B90908950E94C309089581E0089501
:1005F00061700E94C909089581E0089581E008951D
:100600000F93EE2DA0E0B0E0F1E02A173B074A0778
:100610005B076A077B078A079B0709F0F0E0F17028
:10062000F03059F40170E17088EE93E0B90141E0D7
:10063000202F0E2F0E94F50902C00E9405089C0180
:1006400040E050E0BA01CA010F91089581E0089599
:1006500041700E94310A08950E94440A08950E9440
:10066000530A08950E947B0A08950E949E0A0895E5
:100670000E94DE0A08950F931F93182F0E941008FE
:10068000082F0E940D08AC01602F7727812F0E9450
:10069000040B1F910F910895E0E0F0E091E0EE1659
:1006A000FF060E071F072E073F074E075F0709F0DB
:1006B00090E09170903019F4A7010E94040B089506
:1006C00081E008959E2DA0E0B0E0E1E00A171B074D
:1006D0002A073B074A075B076A077B0709F0E0E048
:1006E000E170E03029F49170B801492F0E943A0B73
:1006F0000895FF920F931F93142F062FF82E0E9438
:100700000808802F0E94BD07812F0E94BD070E940C
:100710001008182F0E940D08AC01612F77278F2D2C
:100720000E94040B1F910F91FF9008951F93182FA3
:100730000E94DE0A812F0E947B0A1F9108950F9369
:100740001F93142F082F0E94DE0A802F612F0E9412
:100750009E0A1F910F91089581E0089561700E9493
:10076000770C08950E948F0C08950E94940C0895B0
:100770000E94990C08950E949E0C08950E94A30C5B
:1007800008950E94A80C08950E94C20C08950E942A
:10079000D90C08950E94E80C08950E94C80C089591
:1007A0001F930E941008182F0E940D08BC01812F72
:1007B00099270E940F0D1F910895A0E0B0E0E1E09D
:1007C0000A171B072A073B074A075B076A077B07CD
:1007D00009F0E0E0E170E03019F4B8010E940F0D7B
:1007E000089581E008950F93A0E0B0E0E1E02A17BA
:1007F0003B074A075B076A077B078A079B0709F0E5
:10080000E0E0E170E03029F40170C901602F0E943E
:100810002A0D0F9108950E94600D08950E94780A94
:1008200008950E947D0D0895282F30E0283031056D
:10083000DCF02E303105A4F02531310524F586B1E8
:100840002E50310941E050E002C0440F551F2A9557
:10085000E2F790E04823592381E0452BA1F0089569
:1008600083B128503109EECF99B121E030E002C0C8
:10087000220F331F8A95E2F7892F90E0282339232E
:1008800081E0232B61F780E00895282F30E02830A5
:1008900031056CF49BB121E030E0082E01C0220F3D
:1008A0000A94EAF7662341F1922B9BB908952E3002
:1008B00031057CF445B12850310981E090E0022EE9
:1008C00001C0880F0A94EAF76623D1F0482B45B996
:1008D0000895253131057CF448B12E50310981E06D
:1008E00090E0022E01C0880F0A94EAF761110CC053
:1008F0008095842388B90895209529232BB90895DC
:100900008095842385B90895482B48B90895282FE8
:1009100030E06623B1F028303105B4F12E303105D6
:10092000F4F1253131051CF547B12E50310981E034
:1009300090E0022E01C0880F0A94EAF7482B47B9CD
:10094000089528303105A4F02E303105ACF1253161
:1009500031056CF447B12E50310981E090E0022E50
:1009600001C0880F0A94EAF78095842387B9089517
:100970009AB121E030E0082E01C0220F0A94EAF774
:10098000209529232AB908959AB121E030E0082E54
:1009900001C0220F0A94EAF7922B9AB9089544B144
:1009A0002850310981E090E0022E01C0880F0A949E
:1009B000EAF7482B44B9089544B12850310981E041
:1009C00090E0022E01C0880F0A94EAF780958423F4
:1009D00084B9089585B1089588B108958BB10895BB
:1009E00085B9089588B908958BB9089584B108959B
:1009F00087B108958AB1089584B9089587B9089593
:100A00008AB908951F920F920FB60F9211242F9357
:100A10003F934F935F936F937F938F939F93AF9386
:100A2000BF93EF93FF93E0913401F091350130973C
:100A300009F00995FF91EF91BF91AF919F918F912F
:100A40007F916F915F914F913F912F910F900FBECA
:100A50000F901F9018951F920F920FB60F921124AE
:100A60002F933F934F935F936F937F938F939F93B6
:100A7000AF93BF93EF93FF93E0913201F091330175
:100A8000309709F00995FF91EF91BF91AF919F9138
:100A90008F917F916F915F914F913F912F910F9027
:100AA0000FBE0F901F901895CF93C82F70933501EC
:100AB000609334018AE090E00E94A605F89481E0FA
:100AC0008CBBE898E9E6F0E090818C2F83709C7FE6
:100AD000892B8083E89A7894CF91089510923501FC
:100AE00010923401E8980895CF93C82F7093330182
:100AF000609332018AE090E00E94A605F89482E0BB
:100B00008CBBE998E9E6F0E0208190818C2F83701E
:100B1000880F880F937F892B82238083E99A7894AA
:100B2000CF9108951092330110923201E9980895FF
:100B30000C9475210E94752108950E947521CB01A6
:100B40000895BC0180E090E00C947A21009769F050
:100B500020E030E0EFE9FFE03197F1F700C000005E
:100B60002F5F3F4F28173907A9F708959695879566
:100B70009695879596958795009759F020E030E0F7
:100B80004AE24A95F1F700C02F5F3F4F2817390717
:100B9000B9F708958091360190913701089516BCF8
:100BA0000895833041F0823009F0089586E085BDD4
:100BB00014BC16BC089587E085BDFACF14BC15BCE3
:100BC00016BC089586B508951F920F920FB60F9226
:100BD00011242F933F934F935F936F937F938F9342
:100BE0009F93AF93BF93EF93FF93E091CE01F0916A
:100BF000CF01309709F00995FF91EF91BF91AF9127
:100C00009F918F917F916F915F914F913F912F9124
:100C10000F900FBE0F901F9018955093CF014093E7
:100C2000CE01833089F0823051F067BD82E084BD0F
:100C300080916E00826080936E007894089586E0C3
:100C400085BD14BC16BCF1CF87E085BDFACF1092EC
:100C5000CF011092CE01EEE6F0E080818D7F80839F
:100C600014BC15BC16BC08951F920F920FB60F92BC
:100C700011242F933F934F935F936F937F938F93A1
:100C80009F93AF93BF93EF93FF93E091CC01F091CB
:100C9000CD01309791F00995FF91EF91BF91AF9100
:100CA0009F918F917F916F915F914F913F912F9184
:100CB0000F900FBE0F901F9018958091CA019091D0
:100CC000CB01892B49F35B9AE091CA01F091CB01EA
:100CD00009955B98E1CF662301F13093CB01209316
:100CE000CA01109280001092850010928400442363
:100CF00001F129E02093810048EC489F9001499F31
:100D0000300D1124309389002093880080916F006A
:100D1000826080936F00789408953093CD01209382
:100D2000CC01109280001092850010928400411135
:100D3000E0CF9C0121503109273441E03407A0F471
:100D40002AE02093810048EC489F9001499F300D94
:100D50001124309389002093880080916F00826075
:100D600080936F00789408952F3F334AD0F42DE09C
:100D7000209381009C01A8ECB0E00E940D1D37E09B
:100D800096958795779567953A95D1F770938900F1
:100D90006093880080916F00826080936F007894E8
:100DA00008951092CD011092CC011092CB011092B7
:100DB000CA0110926F008FEF86BB81E080938000A4
:100DC00083E0809381001092850010928400089542
:100DD0001092CD011092CC011092CB011092CA0159
:100DE00010926F008FEF86BB81E08093800083E0DC
:100DF00080938100109285001092840008951092D3
:100E0000C9011092C80110926F008FEF86BB10923B
:100E10008000109281001092850010928400089545
:100E20001F920F920FB60F9211242F933F934F935F
:100E30005F936F937F938F939F93AF93BF93EF9342
:100E4000FF93E091C801F091C901309789F00995AD
:100E50001092C9011092C80110926F008FEF86BBEB
:100E600010928000109281001092850010928400F0
:100E7000FF91EF91BF91AF919F918F917F916F9172
:100E80005F914F913F912F910F900FBE0F901F9048
:100E900018950F931F932091C8013091C901232BFE
:100EA00019F01F910F91089510926F002FEF26BB3C
:100EB00010928000109281001092850010928400A0
:100EC0008B019C01000F111F221F331F000F111FE8
:100ED000221F331F000F111F221F331F000F111F6E
:100EE000221F331F01151105E1E02E07310510F116
:100EF00001151105210584E0380798F65093C901C2
:100F00004093C8014AE036952795179507954A956D
:100F1000D1F7119501951109109385000093840074
:100F200085E08093810081E080936F0078941F9129
:100F30000F9108955093C9014093C80140EF4603B3
:100F40009001479F300D1124309385002093840039
:100F500081E080938100E7CF1092C9011092C8010F
:100F600010926F008FEF86BB10928000109281006C
:100F700010928500109284000895A0914701AF3728
:100F800091F0E1E0EA0FE0934701BB27A7FDB095A0
:100F9000A85BBE4F8C93FF27E7FDF095E85BFE4F03
:100FA000108281E0089580E0089510924701009733
:100FB000E9F0FB015491552329F140E006C0FB0103
:100FC000E20FF31F54915523A1F0A42FBB27A7FDD7
:100FD000B095A85BBE4F5C934F5F242F332727FD4E
:100FE00030952817390758F34093470188E491E07A
:100FF000089540934701F901E85BFE4F108288E4B1
:1010000091E00895E0E0F0E0F7CF87E291E0089505
:101010001092470110924801089588E491E00895E4
:101020008091470108959091470180E8891B0895B8
:101030009F938F937F936F9384E291E09F938F931D
:101040001F928FE08F9388E391E09F938F930E948C
:10105000AA228DB79EB70A960FB6F8949EBF0FBE10
:101060008DBF88E391E008959F938F937F936F9353
:1010700088E291E09F938F931F928FE08F9388E394
:1010800091E09F938F930E94AA228DB79EB70A96F4
:101090000FB6F8949EBF0FBE8DBF88E391E0089510
:1010A0009F938F937F936F931F924F938DE291E065
:1010B0009F938F931F928FE08F9388E391E09F938C
:1010C0008F930E94AA228DB79EB70C960FB6F89404
:1010D0009EBF0FBE8DBF88E391E0089541110AC005
:1010E00080799170F999FECF92BD81BD60BDFA9A69
:1010F000F99A0895F999FECF8079917092BD81BDDA
:10110000F89A20B56213EECF0895F999FECF807951
:10111000917092BD81BDF89A80B508951F920F928B
:101120000FB60F9211248F939F9380913601909167
:101130003701019690933701809336019F918F91EB
:101140000F900FBE0F901F9018951F920F920FB621
:101150000F9211242F938F939F93EF93FF9380917E
:10116000DA0181111EC0E091DC0181E08E0F8093D5
:10117000DC019091C600FF27E7FDF095E252FE4F9B
:101180009083992787FD90958F77907897FD13C06E
:101190008093DC0191E02091DD01281390E0909391
:1011A000DA01FF91EF919F918F912F910F900FBED8
:1011B0000F901F901895019780689F6F01968093FC
:1011C000DC0191E02091DD012813E8CFE8CF9C01FC
:1011D00040E050E0220F331F441F551F220F331FE2
:1011E000441F551F220F331F441F551F220F331F4B
:1011F000441F551F60E074E284EF90E00E94EB1CF6
:101200002150310941095109BB2757FDBA95A52F36
:10121000942F832F8093C5002093C400E2ECF0E06C
:10122000808186608083E1ECF0E080818869808342
:10123000789408959091C00095FFFCCF8093C600EC
:1012400008950097A1F0FB013491332381F031968A
:10125000860F971F2091C00025FFFCCF3093C6005A
:10126000E817F90721F0349131963111F3CF442377
:1012700041F08091C00085FFFCCF8AE08093C600DA
:1012800008950895009799F0FB013081332379F098
:101290003196860F971F2091C00025FFFCCF309319
:1012A000C600E817F90719F031913111F4CF442342
:1012B00041F08091C00085FFFCCF8AE08093C6009A
:1012C000089508959091DD018091DC01981711F047
:1012D00081E008958091DA0108952091DA019091DA
:1012E000DC018091DD01981791F09FB7F894E091AF
:1012F000DD0181E08E0F8093DD01FF27E7FDF09592
:10130000E252FE4F80811092DA019FBF08952111B1
:10131000ECCFFFCFFF920F931F93CF93DF931F92DA
:10132000CDB7DEB7182FF62E00912101602F8BE08C
:1013300049830E948704602F8DE00E948704602FFC
:101340008AE00E948704812F83708065498190E242
:10135000499FA0011124842B6F2D6370660F660FC7
:10136000682B6CBD0F90DF91CF911F910F91FF9073
:101370000895811104C08DB58E7F8DBD08958DB502
:1013800081608DBD08958EBD0DB407FEFDCF8EB575
:1013900008950097D1F0AC0120E030E01EBC0DB400
:1013A00007FEFDCF7EB520383105D4F02F5F3F4FCB
:1013B0002817390799F7662329F0203831054CF0B2
:1013C0001092EC028DE692E008956623D9F340E096
:1013D00050E0FA01E359FD4F10828DE692E0089546
:1013E000F901E359FD4F7083E1CF0F93009749F165
:1013F000A0E0B0E050E0E0E0F0E0442301F1A60F0F
:10140000B71F5C9151111BC021110EC030E03EBDD1
:101410000DB407FEFDCF3EB5E038F105ECF0319696
:10142000DF01E817F90749F7002329F0E038F10553
:1014300064F01092EC028DE692E00F910895352F42
:10144000E6CF0023C1F3E0E0F0E0E359FD4F108266
:101450008DE692E00F910895DF01A359BD4F3C93B3
:10146000DECF63706093B9008093B80084E080930E
:10147000BC00411101C0089561E082E10E94450471
:1014800061E083E10C94450484EA8093BC00809180
:10149000BC0087FFFCCF9091B900987F81E0983025
:1014A00009F080E0089584E98093BC00089580935A
:1014B000BB0084E88093BC008091BC0087FFFCCF18
:1014C0009091B900987F81E0983209F080E008950A
:1014D000882351F084EC8093BC008091BC0087FF8E
:1014E000FCCF8091BB00089584E88093BC00F5CFC9
:1014F0008091B900089594EA9093BC009091BC004B
:1015000097FFFCCF9091B900880F8F5F8093BB004D
:1015100084E88093BC008091BC0087FFFCCF809161
:10152000B90084E88093BC008091BC0087FFFCCFA9
:101530008091BB0094E99093BC00089594EA909345
:10154000BC009091BC0097FFFCCF9091B900880F30
:101550008F5F8093BB0084E88093BC008091BC00C7
:1015600087FFFCCF8091B900262F30E0211531058F
:10157000E1F0EDE6F2E080E090E054E864EC019602
:1015800082179307C4F480389105A9F06093BC00DA
:101590004091BC0047FFFCCF4091BB0041938217B4
:1015A000930719F08038910551F784E98093BC00C6
:1015B0008DE692E008955093BC00EACF94EA9093B0
:1015C000BC009091BC0097FFFCCF9091B90090E0D7
:1015D000880F991F8093BB0084E88093BC008091A2
:1015E000BC0087FFFCCF8091B9006093BB0084E80A
:1015F0008093BC008091BC0087FFFCCF8091B90034
:1016000084E98093BC00089594EA9093BC00909183
:10161000BC0097FFFCCF9091B90090E0880F991F14
:101620008093BB0084E88093BC008091BC0087FF5E
:10163000FCCF8091B90061157105C1F0FA0180817C
:101640008823A1F03196640F751F94E88093BB0046
:101650009093BC008091BC0087FFFCCF8091B900C3
:10166000E617F70719F081918111F0CF84E9809393
:10167000BC0008950F931F93CF93DF931F92CDB7B4
:10168000DEB78B0194EA9093BC009091BC0097FF69
:10169000FCCF9091B90090E0880F991F8093BB0018
:1016A00084E88093BC008091BC0087FFFCCF8091D0
:1016B000B90068EE73E0C80149830E946D22498138
:1016C0000097C9F0F80124912223A9F03196800FE8
:1016D000911F34E82093BB003093BC002091BC00E4
:1016E00027FFFCCF2091B900E817F90721F02491DA
:1016F00031962111EFCF442361F08AE08093BB0043
:1017000084E88093BC008091BC0087FFFCCF80916F
:10171000B90084E98093BC000F90DF91CF911F91B5
:101720000F9108958093BB00662341F084EC809371
:10173000BC008091BC0087FFFCCF089584E88093B3
:10174000BC00F7CF1F920F920FB60F9211242F9368
:101750003F934F935F936F937F938F939F93AF9339
:10176000BF93EF93FF93CF93DF931F92CDB7DEB775
:101770008091B900887F8036F9F08091B900887F28
:10178000883A09F443C08091BC00856C8093BC000A
:101790000F90DF91CF91FF91EF91BF91AF919F910A
:1017A0008F917F916F915F914F913F912F910F900A
:1017B0000FBE0F901F901895EDE6F2E060E070E02C
:1017C00024EC2093BC008091BC0087FFFCCF90915B
:1017D000BB008091B900887F803829F08091B900E2
:1017E000887F883831F491936F5F7F4F603871053F
:1017F00041F7E091D601F091D701309709F457C035
:101800008DE692E009951092DB01BDCFE091D40105
:10181000F091D501309751F11982CE0101960995C9
:101820002981222309F4AFCF60E0A4E874EC462FAD
:1018300050E0FC01E40FF51F30813093BB0030E035
:1018400021503109421753077CF57093BC00209159
:10185000BC0027FFFCCF2091B900287F283B09F06E
:1018600092CF6F5F2981621710F38DCFE091D00185
:10187000F091D101309709F486CF8091DB01882364
:1018800009F481CF09958093BB0084E88093BC0064
:101890008091BC0087FFFCCF1092DB018091BC00DF
:1018A000856C8093BC0074CFA093BC00D0CFE09136
:1018B000D201F091D301309759F06230710544F0B4
:1018C00080916D028093DB0160916E0209955BCF80
:1018D0008091D0019091D101892B09F454CF672BCD
:1018E00009F451CF80916D028093DB014CCFCF93EF
:1018F000C82F662341F061E082E10E94450461E067
:1019000083E10E944504CC0FC093BA0084E0809329
:10191000BC0085EC8093BC007894CF91089590939F
:10192000D9018093D80108959093D7018093D6016F
:1019300008959093D5018093D40108959093D30195
:101940008093D20108959093D1018093D00108959E
:10195000ECEBF0E080818E7F80831092D9011092B1
:10196000D8011092D7011092D6011092D501109291
:10197000D4011092D3011092D2011092D101109291
:10198000D00108958091BC00881F8827881F089582
:101990008093BB0084E88093BC008091BC0087FFEB
:1019A000FCCF8091B9008091BC00856C8093BC0015
:1019B000089584EC8093BC008091BC0087FFFCCF2D
:1019C0008091BB009091BC00956C9093BC000895F1
:1019D000282F30E021153105E1F0EDE6F2E080E05E
:1019E00090E054E864EC019682179307ACF48038D9
:1019F000910591F06093BC004091BC0047FFFCCF83
:101A00004091BB0041938217930719F080389105EC
:101A100051F78DE692E008955093BC00EDCF00970A
:101A2000C1F0FB0120812223A1F03196860F971F80
:101A300034E82093BB003093BC002091BC0027FF0A
:101A4000FCCF2091B900E817F90719F02191211175
:101A5000F0CF08951F93CF93DF93EC01162F68EE1C
:101A600073E00E946D220097C9F0FE0124912223A9
:101A7000A9F031968C0F9D1F34E82093BB00309362
:101A8000BC002091BC0027FFFCCF2091B900E817D3
:101A9000F90721F0249131962111EFCF112361F044
:101AA0008AE08093BB0084E88093BC008091BC00F6
:101AB00087FFFCCF8091B900DF91CF911F910895EE
:101AC000ECEBF0E080818E7F80831092D901109240
:101AD000D8011092D7011092D6011092D501109220
:101AE000D4011092D3011092D2011092D101109220
:101AF000D0011092BA0010820895ECEBF0E08081E2
:101B0000856C80830895CF93DF93C82FD62F609183
:101B100021010E948704C63009F460C050F0CA3029
:101B2000C1F0CB3009F44AC0C93031F1DF91CF9117
:101B30000895C330A1F1C530C9F7DD2309F459C0B8
:101B4000DF3F09F4B3C083E284BD83E085BDD8BD27
:101B5000EDCFDD2309F48CC0DF3F09F498C081E2AA
:101B60008093800083E0809381006D2F70E07093FC
:101B70008B0060938A00DACFDD2309F46AC0DF3F6F
:101B800009F4ACC081E88093800083E080938100F9
:101B90006D2F70E07093890060938800C7CFDD23BC
:101BA00009F449C0DF3F09F48BC081E28093B000A3
:101BB00084E08093B100D093B400B8CFDD2369F105
:101BC000DF3F09F4A4C081E88093B00084E08093F3
:101BD000B100D093B300DF91CF910895DD2399F048
:101BE000DF3F09F48AC083E884BD83E085BDD7BDAB
:101BF0009DCF14BC15BC18BC6091220185E0DF911B
:101C0000CF910C94450414BC15BC17BC6091220103
:101C100086E0DF91CF910C9445041092B00082E0F1
:101C20008093B1001092B300609122018BE0DF91AC
:101C3000CF910C9445041092B00082E08093B100E3
:101C40001092B4006091220183E0DF91CF910C9457
:101C50004504109280001092810010928900109229
:101C600088006091220189E0DF91CF910C944504B6
:101C7000109280001092810010928B0010928A00C6
:101C8000609122018AE0DF91CF910C94450410927B
:101C900080001092810010928B0010928A00609157
:101CA00023018AE0DF91CF910C94450414BC15BC4C
:101CB00018BC6091230185E0DF91CF910C9445041D
:101CC0001092B00082E08093B1001092B400609155
:101CD000230183E0DF91CF910C94450410928000A2
:101CE0001092810010928900109288006091230167
:101CF00089E0DF91CF910C94450414BC15BC17BC4E
:101D00006091230186E0DF91CF910C9445041092FD
:101D1000B00082E08093B1001092B3006091230183
:101D20008BE0DF91CF910C94450487E880937A0093
:101D300080E480937C008AE090E00E94A60561E048
:101D40008DE00E94870460E08DE00C944504CF9301
:101D5000C82F8830C0F480917A0087FF18C0C06413
:101D6000C0937C0080917A00806480937A00809197
:101D70007A0086FDFCCF809178002091790090E078
:101D8000922BCF91089580E090E0CF91089587E85D
:101D900080937A0080E480937C008AE090E00E9447
:101DA000A60561E08DE00E94870460E08DE00E945E
:101DB0004504D5CF80917A0087FF13C088EC8093CB
:101DC0007C0080917A00806480937A0080917A0010
:101DD00086FDFCCF809178002091790090E0922BD5
:101DE000089587E880937A0080E480937C008AE0FD
:101DF00090E00E94A60561E08DE00E94870460E00B
:101E00008DE00E944504DACF80917A0087FF13C0ED
:101E10008EE480937C0080917A00806480937A00C5
:101E200080917A0086FDFCCF809178002091790026
:101E300090E0922B089587E880937A0080E4809365
:101E40007C008AE090E00E94A60561E08DE00E949F
:101E5000870460E08DE00E944504DACFCF92DF92E4
:101E6000EF92FF920F931F93CF93DF938C016A0140
:101E70007B0180917A0087FF2AC088EC80937C00E8
:101E800080917A00806480937A0080917A0086FD48
:101E9000FCCFC091780080917900D0E0D82B01155B
:101EA000110549F020E030E0A901C701B6010E9408
:101EB000BE1D81111FC0CE0181529140DF91CF9193
:101EC0001F910F91FF90EF90DF90CF90089587E8DA
:101ED00080937A0080E480937C008AE090E00E9406
:101EE000A60561E08DE00E94870460E08DE00E941D
:101EF0004504C3CFBE01601B710B80E090E00E94DF
:101F00005B1EA70196010E94C21D0E942A1ECB01E2
:101F1000D5CF1F920F920FB60F9211242F933F939C
:101F20004F935F936F937F938F939F93AF93BF93E1
:101F3000CF93DF93EF93FF9380917A00877F809315
:101F40007A00E0916302F09164023097F1F08091A1
:101F500078002091790090E0922B0995109264020C
:101F600010926302FF91EF91DF91CF91BF91AF91FA
:101F70009F918F917F916F915F914F913F912F91A1
:101F80000F900FBE0F901F901895C0916102D091D5
:101F90006202209739F3609178008091790070E0B7
:101FA000782B8091060190910701681B790B80E0E6
:101FB00090E00E945B1E209102013091030140914C
:101FC0000401509105010E94C21D0E942A1ECB01EE
:101FD000FE0109951092620210926102C3CF1F9315
:101FE000CF93DF93182FEB01883070F480917A0043
:101FF00087FF0FC080917A0086FD06C020916302A2
:1020000030916402232BE1F080E0DF91CF911F91AA
:10201000089587E880937A0080E480937C008AE0CA
:1020200090E00E94A60561E08DE00E94870460E0D8
:102030008DE00E94450480917A0086FFDFCFE4CFD7
:102040002091610230916202232BF1F6D093640259
:10205000C0936302106410937C0080917A008864BE
:1020600080937A00789481E0D0CFCF93DF93EC0116
:1020700080917A0087FF0EC080917A0086FD06C0AD
:102080002091630230916402232BB9F080E0DF914C
:10209000CF91089587E880937A0080E480937C0054
:1020A0008AE090E00E94A60561E08DE00E9487042E
:1020B00060E08DE00E944504DFCF80916102909145
:1020C0006202892B19F7D0936402C093630288ECF3
:1020D00080937C0080917A00886480937A00789461
:1020E00081E0D5CFCF92DF92EF92FF920F931F93B3
:1020F000CF93DF9300D0CDB7DEB78C016A017B01AF
:1021000080917A0087FF16C080917A0086FD06C014
:102110004091630250916402452B19F180E00F90C9
:102120000F90DF91CF911F910F91FF90EF90DF9073
:10213000CF90089587E880937A0080E480937C00B4
:102140008AE090E029833A830E94A60561E08DE051
:102150000E94870460E08DE00E9445043A81298155
:10216000D3CF8091610290916202892BB9F63093AE
:1021700062022093610201151105A9F020E030E010
:10218000A901C701B6010E94BE1D882361F010930A
:10219000070100930601C0920201D0920301E09270
:1021A0000401F092050188EC80937C0080917A0014
:1021B000886480937A00789481E0B1CFCF93DF93E5
:1021C000EC0180917A0087FF0EC080917A0086FD35
:1021D00006C02091630230916402232BB9F080E0A5
:1021E000DF91CF91089587E880937A0080E480930F
:1021F0007C008AE090E00E94A60561E08DE00E94EC
:10220000870460E08DE00E944504DFCF8091610289
:1022100090916202892B19F7D0936402C0936302F4
:102220008EE480937C0080917A00886480937A00A9
:10223000789481E0D5CF0F931F93CF93DF93182F1E
:10224000D62F0FB7F894C8E06D2F661F6627661F5C
:10225000812F0E942618DD0FC150B1F70FBFDF910B
:10226000CF911F910F910895382F562F80916802BA
:10227000882361F080916702622F70E0882389F0E3
:1022800080E090E0742B832B952B0895809167025A
:10229000642F70E081110BC080E090E0832B752BE0
:1022A000089580E090E0742B932B852B089580E0B7
:1022B00090E0732B852B08958F929F92AF92BF92DF
:1022C000CF92DF92EF92FF921F93CF93DF936B0138
:1022D0007C011FB7F89480916802882359F1812C02
:1022E000912CA12C20E8B22ED0E2C0E061E0D70111
:1022F000C60188219921AA21BB21892B8A2B8B2BEE
:1023000009F460E080916A020E942618CC0CDD1C62
:10231000EE1CFF1CCF5FCD1748F31FBFDF91CF919D
:102320001F91FF90EF90DF90CF90BF90AF909F9064
:102330008F900895812C912C90E8A92EB12CD8E192
:10234000D4CF0F93CF93C62F80936A026093690214
:1023500040936802209367021092F5021092F602F1
:102360001092F7021092F8024423D9F1211182C091
:1023700040E050E060E07FEF4093F9025093FA02B2
:102380006093FB027093FC0240E050E06FEF70E05E
:102390004093F1025093F2026093F3027093F402BF
:1023A00040E05FEF60E070E04093ED025093EE029A
:1023B0006093EF027093F0024FEF50E060E070E046
:1023C0004093FD025093FE026093FF02709300035E
:1023D00001113BC08091650290916602CF910F91EF
:1023E0000895211158C040E050E06FEF70E0409335
:1023F000F9025093FA026093FB027093FC0240E0F2
:102400005FEF60E070E04093F1025093F20260935E
:10241000F3027093F4024FEF50E060E070E04093FD
:10242000ED025093EE026093EF027093F0024FEFD3
:102430005FEF6FEF70E04093FD025093FE026093F8
:10244000FF0270930003002329F2809165029091AE
:102450006602009711F00E94972064E070E08C2FD4
:1024600090E00E94E31F8093650290936602CF91F3
:102470000F91089540E050E06FEF70E04093F90253
:102480005093FA026093FB027093FC0240E050E02C
:1024900060E07FEF7DCF40E05FEF60E070E0409371
:1024A000F9025093FA026093FB027093FC0240E041
:1024B00050E06FEF70E0A7CF5F926F927F928F92A4
:1024C0009F92AF92BF92CF92DF92EF92FF920F93C3
:1024D0001F93CF93DF93E0916502F09166023097EE
:1024E00009F44BC080916902882309F446C000E0DA
:1024F00010E0C0E0D0E0E00FF11FC080D180E280AA
:10250000F3806FB6F89480916802882371F1812C72
:10251000912CA12C60E8B62E70E2772E512C61E050
:10252000D701C60188219921AA21BB21892B8A2B99
:102530008B2B09F460E080916A020E942618CC0C73
:10254000DD1CEE1CFF1C5394571448F36FBE2196FC
:102550000C5F1F4F8091690290E0C817D9076CF497
:10256000E0916502F0916602C6CF812C912C40E883
:10257000A42EB12C58E1752ED1CFDF91CF911F91B0
:102580000F91FF90EF90DF90CF90BF90AF909F9012
:102590008F907F906F905F900895809165029091E9
:1025A0006602009769F040916902442349F050E0C7
:1025B000440F551F440F551F60E070E00C946622D5
:1025C00008958091650290916602009731F00E9413
:1025D000972010926602109265020895EF92FF9282
:1025E0000F931F93CF93DF930091650210916602C2
:1025F0000115110599F120916902222379F10D5FEE
:102600001F4FEC01E12CF12CF801339740E0608181
:10261000CE010E946E08F801329740E06081CE0141
:1026200001960E946E08F801319740E06081CE016A
:1026300002960E946E0840E0F8016081CE01039688
:102640000E946E08FFEFEF1AFF0A24960C5F1F4FDF
:102650008091690290E0E816F906B4F2DF91CF911B
:102660001F910F91FF90EF900895EF92FF920F93BB
:102670001F93CF93DF9300916502109166020115BD
:10268000110579F120916902222359F10D5F1F4F45
:10269000EC01E12CF12CCE010E948508F801339762
:1026A0008083CE0101960E948508F80132978083CD
:1026B000CE0102960E948508F80131978083CE01F1
:1026C00003960E948508F8018083FFEFEF1AFF0A46
:1026D00024960C5F1F4F8091690290E0E816F9067E
:1026E000D4F2DF91CF911F910F91FF90EF90089559
:1026F0003F924F925F926F927F928F929F92AF9292
:10270000BF92CF92DF92EF92FF920F931F93CF93DE
:10271000DF93CDB7DEB72A970FB6F894DEBF0FBEB2
:10272000CDBF8C017A876987FC01608170E080E011
:1027300090E00E945B1E20E030E04FE753E40E94EF
:10274000C21D20E030E843EB53E40E94601F2B01E0
:102750003C0120E030E044EB53E40E94BE1D87FFC3
:102760000EC020E030E0A901B201C3010E94BE1DED
:1027700087FF21C1412C512C612C712C06C0412CAA
:10278000512C94EB83E4692E782EF801618170E07E
:1027900080E090E00E945D1E6B017C0120E030E053
:1027A00048EC52E40E94BE1D87FF0DC020E030E0DF
:1027B000A901C701B6010E94BE1D87FFF1C0C12C4F
:1027C000D12C760106C0C12CD12CA0E8EA2EAFE3B3
:1027D000FA2EF801628170E080E090E00E945D1EB8
:1027E0004B015C0120E030E048EC52E40E94BE1D49
:1027F00087FF0EC020E030E0A901C501B4010E94AE
:10280000BE1D87FFDBC0312C812C912C540108C0E8
:1028100033243A94812C912CF0E8AF2EFFE3BF2EA5
:1028200020E030E0A901C701B6010E94BE1D882347
:1028300009F4DAC020E030E040E752E4B201C3011D
:102840000E94C21D2B013C010E94981E0E942A1E5C
:102850008B01882777FD8095982F0E945D1E9B0134
:10286000AC01C301B2010E94591D2B013C01A7011B
:10287000960160E070E080E89FE30E94591DA50189
:1028800094010E94601F69837A838B839C83A701D4
:102890009601C301B2010E94601F9B01AC0160E080
:1028A00070E080E89FE30E94591DA50194010E94F9
:1028B000601F6D837E838F839887A301920160E000
:1028C00070E080E89FE30E94591DA70196010E94D5
:1028D000601F9B01AC0160E070E080E89FE30E9414
:1028E000591DA50194010E94601F6B017C010230FB
:1028F000110509F4C9C064F50115110509F491C069
:102900000130110509F0D9C020E030E04FE753E471
:102910006D817E818F8198850E94601F0E94C31FF8
:102920000E942F1EE985FA856283318220E030E023
:102930004FE753E469817A818B819C810E94601FFB
:102940000E94C31F0E942F1EE985FA85608351C033
:102950000330110509F47EC00430110509F0ADC043
:1029600020E030E04FE753E40E94601F0E94C31F45
:102970000E942F1EE985FA85628320E030E04FE750
:1029800053E469817A818B819C810E94601F0E943F
:10299000C31F0E942F1EE985FA856183308229C0FA
:1029A00020E030E048EC52E4C701B6010E94C21DAD
:1029B0006B017C010ECF962D872DE5CE20E030E017
:1029C00048EC52E4C501B4010E94C21D4B015C01F8
:1029D00020E030E04FE753E40E94601F0E94C31FD5
:1029E0000E942F1E362E1CCFE985FA853082318257
:1029F00032822A960FB6F894DEBF0FBECDBFDF91AC
:102A0000CF911F910F91FF90EF90DF90CF90BF90EB
:102A1000AF909F908F907F906F905F904F903F907E
:102A20000895E985FA85328220E030E04FE753E4EB
:102A30000E94601F0E94C31F0E942F1EE985FA8515
:102A4000618320E030E04FE753E469817A818B8134
:102A50009C8174CF20E030E04FE753E469817A81B4
:102A60008B819C810E94601F0E94C31F0E942F1EA9
:102A7000E985FA85628320E030E04FE753E46D8119
:102A80007E818F81988581CF20E030E04FE753E44D
:102A900069817A818B819C810E94601F0E94C31F83
:102AA0000E942F1EE985FA856283318220E030E0A2
:102AB0004FE753E4C701B60141CFE985FA85328279
:102AC00020E030E04FE753E469817A818B819C817B
:102AD0000E94601F0E94C31F0E942F1EE985FA8575
:102AE000618320E030E04FE753E46D817E818F8188
:102AF000988524CF3F924F925F926F927F928F92F0
:102B00009F92AF92BF92CF92DF92EF92FF920F937C
:102B10001F93CF93DF93CDB7DEB72C970FB6F89402
:102B2000DEBF0FBECDBFF62EB42E322E682F70E062
:102B300080E090E00E945B1E20E030E04FE753E42D
:102B40000E94C21D20E030E843EB53E40E94601F66
:102B50003B018C0120E030E044EB53E40E94BE1DB9
:102B600087FF2AC020E030E0A901B301C8010E941C
:102B7000BE1D87FF04C0612C712C00E010E06F2D9A
:102B800070E080E090E00E945D1E6B017C0120E01F
:102B900030E048EC52E40E94BE1D87FF12C020E0E6
:102BA00030E0A901C701B6010E94BE1D87FF30C1F8
:102BB000C12CD12C76010BC0612C712C04EB13E4D9
:102BC000DECFC12CD12CB0E8EB2EBFE3FB2E6B2D5A
:102BD00070E080E090E00E945D1E4B015C0120E00F
:102BE00030E048EC52E40E94BE1D87FF11C020E097
:102BF00030E0A901C501B4010E94BE1D87FF13C1C9
:102C000019821A821B821C82812C912C54010EC0C5
:102C10008FEF90E0A0E0B0E089839A83AB83BC8320
:102C2000812C912CA0E8AA2EAFE3BA2E20E030E050
:102C3000A901C701B6010E94BE1D882309F410C175
:102C400020E030E040E752E4B301C8010E94C21D19
:102C50002B013C010E94981E0E942A1E8B0188278E
:102C600077FD8095982F0E945D1E9B01AC01C301EA
:102C7000B2010E94591D2B013C01A701960160E0A1
:102C800070E080E89FE30E94591DA50194010E9415
:102C9000601F6D837E838F839887A7019601C30190
:102CA000B2010E94601F9B01AC0160E070E080E80F
:102CB0009FE30E94591DA50194010E94601F69872E
:102CC0007A878B879C87A301920160E070E080E89F
:102CD0009FE30E94591DA70196010E94601F9B015E
:102CE000AC0160E070E080E89FE30E94591DA501FF
:102CF00094010E94601F6B017C010230110509F4F0
:102D00007AC10CF050C00115110509F401C1013060
:102D1000110509F059C120E030E04FE753E469851F
:102D20007A858B859C850E94601F0E94C31F6B0162
:102D30007C0120E030E04FE753E46D817E818F819C
:102D400098850E94601F0E94C31F4B015C01C70150
:102D5000B6010E942F1EC62ED12CE12CF12CC501EC
:102D6000B4010E942F1E462E512C612C712C2091F3
:102D70006802211180C020916702211111C1C60192
:102D800077276627C980DA80EB80FC803E2D2D2DC9
:102D90001C2D0027602B712B822B932B6429752906
:102DA0008629972984C00330110509F4E2C0043054
:102DB000110509F009C120E030E04FE753E40E941B
:102DC000601F0E94C31F6B017C0120E030E04FE7D1
:102DD00053E46D817E818F8198850E94601F0E94DF
:102DE000C31F0E942F1E862E912CA12CB12CC7012F
:102DF000B6010E942F1EC62ED12CE12CF12C498049
:102E00005A806B807C8089829A82AB82BC822EC081
:102E100020E030E048EC52E4C701B6010E94C21D38
:102E20006B017C01D4CE20E030E048EC52E4C501D7
:102E3000B4010E94C21D4B015C0120E030E04FE76D
:102E400053E40E94601F0E94C31F0E942F1E262F62
:102E500030E040E050E029833A834B835C83E6CE48
:102E600049805A806B807C807301620120916802E6
:102E7000222309F480CF20916702222381F1298146
:102E80003A814B815C81922F8827772766277601CC
:102E9000DD24CC246C297D298E299F296329362D98
:102EA000252D142D0027602B712B822B932B2C9614
:102EB0000FB6F894DEBF0FBECDBFDF91CF911F914B
:102EC0000F91FF90EF90DF90CF90BF90AF909F90C9
:102ED0008F907F906F905F904F903F9008959C2DC2
:102EE000882777276627C980DA80EB80FC809601E7
:102EF00011270027602B712B822B932B6329362DF2
:102F0000252D142D0027602B712B822B932BCFCFD7
:102F100020E030E04FE753E40E94601F0E94C31F8F
:102F20006B017C0120E030E04FE753E46D817E814E
:102F30008F8198850E94601F0E94C31F2B013C0156
:102F4000C701B6010E942F1E862E912CA12CB12CF8
:102F5000C301B2010E942F1E462E512C612C712CF0
:102F6000C980DA80EB80FC8089829A82AB82BC8245
:102F70007DCF20E030E04FE753E46D817E818F818B
:102F800098850E94601F0E94C31F6B017C0120E096
:102F900030E04FE753E469857A858B859C851DCFAA
:102FA00029813A814B815C81C90177276627FE2CF4
:102FB000ED2CDC2CCC246C297D298E299F296429B9
:102FC00075298629972973CF20E030E04FE753E435
:102FD0006D817E818F8198850E94601F0E94C31F32
:102FE0006B017C0120E030E04FE753E469857A858E
:102FF0008B859C859FCF20E030E04FE753E46D81C7
:103000007E818F8198850E94601F0E94C31F4B01A3
:103010005C0120E030E04FE753E4C701B6010E94B5
:10302000601F0E94C31F2B013C01C501B4010E9417
:103030002F1EC62ED12CE12CF12CC301B2010E940F
:103040002F1E462E512C612C712C10CF282F30E0D2
:103050002830310564F59BB121E030E002C0220F39
:10306000331F8A95E2F7A901492BCA014BB120957C
:10307000309550E024233523662309F474C08BB9BE
:103080000000000000000000000000000000000040
:10309000000000000000000000002BB9000000004C
:1030A00000000000000000000000000008952E3025
:1030B00031056CF545B12850310981E090E002C03E
:1030C000880F991F2A95E2F79C01242B45B1809522
:1030D000909550E084239523662309F459C025B9BF
:1030E00000000000000000000000000000000000E0
:1030F0000000000000000000000085B90000000092
:1031000000000000000000000000000008952531CC
:10311000310544F548B12E50310981E090E002C0FC
:10312000880F991F2A95E2F79C01242B48B18095BE
:10313000909550E08423952361113FC028B9000089
:10314000000000000000000088B90000000000003E
:10315000000000000000000000000000000000006F
:103160000000000008958BB900000000000000007E
:1031700000002BB90000000000000000000000006B
:1031800000000000000000000000000000000895A2
:1031900025B90000000000000000000085B9000013
:1031A000000000000000000000000000000000001F
:1031B0000000000000000000089528B90000000091
:1031C00000000000000000000000000000000000FF
:1031D00000000000000088B90000000000000000AE
:1031E00000000000000000000895A3E1B0E0EBEF54
:1031F000F8E10C941C1D7C011B016A01FC01178283
:103200001682838181FF66C3BE016F5F7F4F4B01D2
:10321000F7019381F10193FD859193FF81911F0146
:10322000882309F453C3853239F493FD859193FFC4
:1032300081911F01853239F4B70190E00E94782214
:1032400056016501E5CF10E0512C20E02032A0F4BA
:103250008B3269F030F4803259F0833269F42061A6
:103260002CC08D3239F0803339F4216026C02260C1
:10327000246023C0286021C027FD27C030ED380F0F
:103280003A3078F426FF06C0FAE01F9F300D112473
:10329000132F13C06AE0569E300D1124532E206266
:1032A0000CC08E3221F426FD11C3206406C08C367A
:1032B00011F4206802C0883641F4F10193FD859134
:1032C00093FF81911F018111C1CF9BEB980F933028
:1032D00018F42061805E06C09BE9980F933008F0D7
:1032E000AAC12F7E26FF16E02F73722E853621F499
:1032F000F22FF0647F2E08C0863621F4622F6068BA
:10330000762E02C01111115077FE07C01C3348F40D
:1033100044244394410E27E00BC0183030F4212F91
:1033200006C027E04CE3442E03C027E017E0412C01
:10333000560174E0A70EB11CF60160817181828193
:103340009381042DA4010E9483216C01098100FF57
:1033500002C003FF06C071FC07C072FC08C0612CEC
:1033600008C03DE2632E05C02BE2622E02C090E24F
:10337000692E802F8C7099F1662011F084E001C0D5
:1033800083E0851510F0512C0BC0581A73FC08C04F
:10339000B70180E290E00E9478225A94C9F7F3CFF7
:1033A000662029F0B701862D90E00E94782203FD67
:1033B00003C00CE610E002C008E610E0F72DF07143
:1033C0007F2EF8018491882309F476C2711080520F
:1033D000B70190E00E9478220F5F1F4FF2CF77FE77
:1033E0000FC04C0C04FF04C08A81813309F44A9455
:1033F000141474F5F8E0F41578F588E0482E2CC024
:1034000076FC2AC0812F90E08C159D059CF06CEF16
:10341000C6166FEFD60674F0772D7068772E0AC047
:10342000E2E0F0E0EC0FFD1FE10FF11D8081803341
:1034300019F411501111F4CF77FE0EC044244394B7
:10344000410E812F90E0C816D9062CF41C1904C037
:103450004424439401C010E077FE07C01C141D04EF
:103460003CF496012F5F3F4F05C025E030E002C0DD
:1034700021E030E0662011F02F5F3F4F112331F043
:10348000412F50E04F5F5F4F240F351F452D50E017
:103490002417350714F4521A01C0512C872D897056
:1034A00049F4552039F0B70180E290E00E9478227B
:1034B0005A94F7CF662029F0B701862D90E00E943C
:1034C000782273FC09C0552039F0B70180E390E001
:1034D0000E9478225A94F7CF77FE5FC09C2D8D2DE5
:1034E000D7FE02C090E080E0692E782E40E050E0E8
:1034F000C601841991099D878C8796012619370981
:10350000280D391D812F90E0EE27FF27E81BF90BCE
:10351000FF87EE87FFEF6F167F0669F4B7018EE233
:1035200090E02B8B3A8B488B598B0E9478225989DB
:1035300048893A892B89C614D70454F06C857D8557
:10354000661577052CF4F901E40FF51F818101C0A0
:1035500080E371E0671A71084F5F5F4FEE85FF856A
:103560006E167F066CF0B70190E02B8B3A8B488B80
:10357000598B0E9478222B893A8948895989CACF68
:103580006C147D0439F49A81963318F4953311F450
:1035900004FF81E3B70190E04BC08A81813309F0D9
:1035A0000F7EB70190E00E947822111105C074FED1
:1035B00018C085E490E017C0B7018EE290E00E9449
:1035C000782282E066246394680EF401E80FF11D0E
:1035D0008081B70190E00E947822115041F3862D3E
:1035E000F1CF85E690E0B7010E947822D7FC05C0B4
:1035F000C114D10439F404FF05C0D194C194D10899
:103600008DE201C08BE2B70190E00E94782280E356
:103610006AE0C616D1042CF08F5FFAE0CF1AD10809
:10362000F7CFB70190E00E947822B701C601C0969B
:103630000E94782241C1833631F0833779F0833597
:1036400009F058C021C0560172E0A70EB11CF60166
:103650008081898301E010E0640114C05601F2E02A
:10366000AF0EB11CF601C080D18026FF03C0612FD0
:1036700070E002C06FEF7FEFC6012B8B0E946D22BE
:103680008C012B892F7715C05601F2E0AF0EB11CCB
:10369000F601C080D18026FF03C0612F70E002C018
:1036A0006FEF7FEFC6012B8B0E945B228C012B8971
:1036B0002068722E23FD1AC0852D90E00817190787
:1036C000A8F4B70180E290E00E9478225A94F4CFE7
:1036D000F60177FC859177FE81916F01B70190E04B
:1036E0000E94782251105A940150110901151105B8
:1036F00079F7E2C0843611F0893651F5560127FF7B
:1037000009C0F4E0AF0EB11CF601608171818281C5
:1037100093810AC0F2E0AF0EB11CF60160817181A5
:10372000882777FD8095982F022F0F7697FF08C086
:1037300090958095709561957F4F8F4F9F4F006852
:103740002AE030E0A4010E94DA22C82EC8183EC048
:10375000022F853721F40F7E2AE030E01DC0097F5B
:103760008F3691F018F4883559F0B0C0803719F0D1
:10377000883711F0ABC0006104FF09C0046007C0C6
:1037800024FF08C0066006C028E030E005C020E144
:1037900030E002C020E132E0560107FF09C0F4E04A
:1037A000AF0EB11CF601608171818281938108C0E6
:1037B000F2E0AF0EB11CF6016081718180E090E013
:1037C000A4010E94DA22C82EC8180F7706FF0BC08A
:1037D000202F2E7FC11650F404FF0AC002FD08C03E
:1037E000202F2E7E05C0DC2C202F03C0DC2C01C036
:1037F000D12E24FF0DC0FE01EC0DF11D8081803320
:1038000011F4297E09C022FF06C0D394D39404C0CA
:10381000822F867809F0D39423FD13C020FF06C0C1
:103820001C2DD51418F4150D1D19D52CD51468F4BC
:10383000B70180E290E02B8B0E947822D3942B89F1
:10384000F5CFD51410F45D1801C0512C24FF12C01F
:10385000B70180E390E02B8B0E9478222B8922FF16
:1038600017C021FF03C088E590E002C088E790E020
:10387000B7010CC0822F867859F021FD02C080E28A
:1038800001C08BE227FD8DE2B70190E00E94782213
:10389000C11638F4B70180E390E00E9478221150FD
:1038A000F7CFCA94F401EC0DF11D8081B70190E0CF
:1038B0000E947822C110F5CF552009F4C2CCB7017F
:1038C00080E290E00E9478225A94F6CFF701868138
:1038D000978102C08FEF9FEF6396E2E10C94381D51
:1038E0002F923F924F925F926F927F928F929F9210
:1038F000AF92BF92CF92DF92EF92FF920F931F93FE
:103900008AE080936C0283E080936B0210911A012D
:1039100083E0612F0E9471018AE0612F0E94710192
:1039200010911C018AE0612F0E946D0182E060E02D
:1039300040E00E94E70280E895E20E940002F090D9
:103940001B0188EE93E01C0183E0612F0E946D0152
:103950008AE06F2D0E946D0189E20E94F302E82E39
:103960008AE0612F0E946D012101C2010E94E600E0
:1039700083E06F2D0E946D01C0900601D090070179
:10398000A0900401B0900501809002019090030185
:1039900060900001709001010E940302082F9301C2
:1039A000A401B501C6010E9405020E94AD02682F64
:1039B0008E2D99270E94AF02C2010E94E600C4CF5B
:1039C0001092B00082E08093B100EEE6F0E08081DA
:1039D000816080830895A1E21A2EAA1BBB1BFD0102
:1039E0000DC0AA1FBB1FEE1FFF1FA217B307E407DE
:1039F000F50720F0A21BB30BE40BF50B661F771F36
:103A0000881F991F1A9469F7609570958095909515
:103A10009B01AC01BD01CF010895A29FB001B39FEE
:103A2000C001A39F700D811D1124911DB29F700DC7
:103A3000811D1124911D08952F923F924F925F9204
:103A40006F927F928F929F92AF92BF92CF92DF92AE
:103A5000EF92FF920F931F93CF93DF93CDB7DEB713
:103A6000CA1BDB0B0FB6F894DEBF0FBECDBF0994A7
:103A70002A88398848885F846E847D848C849B84FE
:103A8000AA84B984C884DF80EE80FD800C811B810C
:103A9000AA81B981CE0FD11D0FB6F894DEBF0FBE3B
:103AA000CDBFED010895EE0FFF1F0590F491E02DBD
:103AB00009945058BB27AA270ED0B1C1A2D130F02B
:103AC000A7D120F031F49F3F11F41EF497C10EF4FA
:103AD000E095E7FB64C1E92FB3D180F3BA17620721
:103AE00073078407950718F071F49EF5E2C10EF490
:103AF000E0950B2EBA2FA02D0B01B90190010C01FE
:103B0000CA01A0011124FF27591B99F0593F50F415
:103B1000503E68F11A16F040A22F232F342F44276D
:103B2000585FF3CF469537952795A795F040539565
:103B3000C9F77EF41F16BA0B620B730B840BBAF035
:103B40009150A1F0FF0FBB1F661F771F881FC2F7A0
:103B50000EC0BA0F621F731F841F48F487957795B4
:103B60006795B795F7959E3F08F0B3CF9395880F6B
:103B700008F09927EE0F979587950895ECD008F4F3
:103B800081E008950CD04BC143D140F03AD130F0E0
:103B900021F45F3F19F003C151118CC12FC150D1E5
:103BA00098F39923C9F35523B1F3951B550BBB2704
:103BB000AA2762177307840738F09F5F5F4F220FB1
:103BC000331F441FAA1FA9F333D00E2E3AF0E0E8AA
:103BD00030D091505040E695001CCAF729D0FE2FF6
:103BE00027D0660F771F881FBB1F26173707480788
:103BF000AB07B0E809F0BB0B802DBF01FF2793583E
:103C00005F4F2AF09E3F510568F0C9C053C15F3F26
:103C1000ECF3983EDCF3869577956795B795F79525
:103C20009F5FC9F7880F911D9695879597F908951D
:103C3000E1E0660F771F881FBB1F621773078407B9
:103C4000BA0720F0621B730B840BBA0BEE1F88F7C8
:103C5000E095089504D06894B1112CC10895F8D06E
:103C600088F09F5790F0B92F9927B751A0F0D1F065
:103C7000660F771F881F991F1AF0BA95C9F712C0EF
:103C8000B13081F016D1B1E0089513C1672F782FBC
:103C90008827B85F39F0B93FCCF38695779567955B
:103CA000B395D9F73EF490958095709561957F4FC7
:103CB0008F4F9F4F0895E89409C097FB3EF490956D
:103CC0008095709561957F4F8F4F9F4F9923A9F0F5
:103CD000F92F96E9BB279395F69587957795679584
:103CE000B795F111F8CFFAF4BB0F11F460FF1BC0C8
:103CF0006F5F7F4F8F4F9F4F16C0882311F096E95B
:103D000011C0772321F09EE8872F762F05C0662308
:103D100071F096E8862F70E060E02AF09A95660FC1
:103D2000771F881FDAF7880F9695879597F908957A
:103D3000A9D080F09F3740F491110EF0BBC060E035
:103D400070E080E89FEB089526F41B16611D711D3D
:103D5000811D2BC045C0990F0008550FAA0BE0E844
:103D6000FEEF16161706E807F907C0F0121613063D
:103D7000E407F50798F0621B730B840B950B39F47D
:103D80000A2661F0232B242B252B21F408950A26E3
:103D900009F4A140A6958FEF811D811D089597F923
:103DA0009F6780E870E060E00895882371F47723CE
:103DB00021F09850872B762F07C0662311F499279E
:103DC0000DC09051862B70E060E02AF09A95660F46
:103DD000771F881FDAF7880F9695879597F90895CA
:103DE0009F3F31F0915020F4879577956795B7956F
:103DF000880F911D9695879597F908959FEF80EC10
:103E0000089500240A941616170618060906089540
:103E100000240A9412161306140605060895092EA6
:103E20000394000C11F4882352F0BB0F40F4BF2B15
:103E300011F460FF04C06F5F7F4F8F4F9F4F089555
:103E400057FD9058440F551F59F05F3F71F047954B
:103E5000880F97FB991F61F09F3F79F08795089530
:103E6000121613061406551FF2CF4695F1DF08C04F
:103E7000161617061806991FF1CF8695710561056C
:103E800008940895E5DFA0F0BEE7B91788F4BB27D2
:103E90009F3860F41616B11D672F782F8827985F1A
:103EA000F7CF869577956795B11D93959639C8F3A9
:103EB0000895E894BB2766277727CB0197F90895E3
:103EC0000BD0ADCF9EDF28F0A3DF18F0952309F0CB
:103ED00066CF94CF1124EECFB3DFA0F3959FD1F33B
:103EE000950F50E0551F629FF001729FBB27F00DA8
:103EF000B11D639FAA27F00DB11DAA1F649F6627FD
:103F0000B00DA11D661F829F2227B00DA11D621F4B
:103F1000739FB00DA11D621F839FA00D611D221F05
:103F2000749F3327A00D611D231F849F600D211DE9
:103F3000822F762F6A2F11249F5750408AF0E1F08C
:103F400088234AF0EE0FFF1FBB1F661F771F881FD5
:103F500091505040A9F79E3F510570F020CFAACF55
:103F60005F3FECF3983EDCF3869577956795B795C0
:103F7000F795E7959F5FC1F7FE2B880F911D9695EA
:103F8000879597F9089564DFE0F09E37D8F0963969
:103F9000B8F49E3848F4672F782F8827985FF9CFB8
:103FA00086957795679593959539D0F3B62FB1702F
:103FB0006B0F711D811D20F48795779567959395FB
:103FC000F4CE0ECF77CF0F931F93CF93DF93869FBF
:103FD0008001879F100D969F100D1124C8010E942B
:103FE000FF1FEC01009729F0A80160E070E00E943B
:103FF0006622CE01DF91CF911F910F910895CF934B
:10400000DF938230910510F482E090E0E0910303A9
:10401000F091040320E030E0A0E0B0E0309739F107
:104020004081518148175907B8F04817590771F472
:1040300082819381109729F013969C938E93129707
:104040002CC0909304038093030327C021153105EE
:1040500031F04217530718F0A901DB0101C0EF014D
:104060009A01BD01DF010280F381E02DD7CF211538
:104070003105F9F0281B390B2430310580F48A8191
:104080009B816115710521F0FB019383828304C03C
:104090009093040380930303FE01329644C0FE0113
:1040A000E20FF31F819391932250310939832883C2
:1040B0003AC02091010330910203232B41F4209157
:1040C0000D0130910E0130930203209301032091E2
:1040D0000B0130910C012115310541F42DB73EB78C
:1040E00040910F0150911001241B350BE091010309
:1040F000F0910203E217F307A0F42E1B3F0B2817E1
:10410000390778F0AC014E5F5F4F2417350748F050
:104110004E0F5F1F509302034093010381939193CD
:1041200002C0E0E0F0E0CF01DF91CF910895CF939E
:10413000DF93009709F487C0FC0132971382128243
:10414000C0910303D0910403209781F42081318131
:10415000280F391F80910103909102038217930762
:1041600079F5F0930203E09301036DC0DE0120E0D6
:1041700030E0AE17BF0750F412964D915C91139743
:104180009D014115510509F1DA01F3CFB383A283F3
:1041900040815181840F951F8A179B0771F48D917F
:1041A0009C911197840F951F02969183808312969C
:1041B0008D919C911397938382832115310529F466
:1041C000F0930403E09303033EC0D9011396FC93DC
:1041D000EE9312974D915D91A40FB51FEA17FB075F
:1041E00079F480819181840F951F0296D9011196EF
:1041F0009C938E938281938113969C938E931297B6
:10420000E0E0F0E08A819B81009719F0FE01EC016B
:10421000F9CFCE01029628813981820F931F209118
:104220000103309102032817390769F4309729F404
:10423000109204031092030302C013821282D093DF
:104240000203C0930103DF91CF9108958F929F9253
:10425000AF92BF92CF92DF92EF92FF92CF93DF9314
:10426000EC01688179818A819B81611571058105E5
:10427000910521F464E279ED8BE597E02DE133EFD0
:1042800041E050E00E94382349015A019B01AC01F2
:10429000A7EAB1E40E9457236B017C01ACEEB4EFB6
:1042A000A50194010E946523C60ED71EE81EF91EC3
:1042B000F7FE06C081E0C81AD108E10880E8F80AD4
:1042C000C882D982EA82FB82C701B6019F77DF915B
:1042D000CF91FF90EF90DF90CF90BF90AF909F90E5
:1042E0008F9008950E942621089581E191E00E9417
:1042F0002621089560931101709312018093130198
:10430000909314010895283008F027E03327DA014C
:10431000990F311D87FD916000966105710539F493
:1043200032602E5F3D9330E32A95E1F708959F3F79
:1043300030F080387105610509F03C5F3C5F3D93CA
:10434000913008F08068911DDF93CF931F930F93F6
:10435000FF92EF92192F987F9695E92F9695969553
:10436000E90FFF27EA52FF4F99273327EE24FF2456
:10437000A701E70105900894079428F4360FE71E7B
:10438000F81E491F511D660F771F881F991F06943D
:10439000A1F70590079428F4E70EF81E491F561F51
:1043A000C11D770F881F991F661F0694A1F70590FE
:1043B000079428F4F80E491F561FC71FD11D880FF8
:1043C000991F661F771F0694A1F70590079420F4A4
:1043D000490F561FC71FD81F990F661F771F881FC9
:1043E0000694A9F784911095177041F0D695C7955A
:1043F00057954795F794E7941A95C1F7ECE7F0E0E5
:1044000068941590159135916591959105907FE28D
:104410007395E118F10A430B560BC90BD009C0F78D
:10442000E10CF11E431F561FC91FD01D7EF47033CF
:1044300011F48A95E6CFE894015030F0080F0AF4A1
:104440000027021708F4202F2395022F7A3328F033
:1044500079E37D932A95E9F710C07D932A9589F633
:10446000069497956795379517951794E118F10A73
:10447000430B560BC90BD00998F023957E91739589
:104480007A3308F070E37C932013B8F77E91706163
:104490007D9330F0839571E37D9370E32A95E1F786
:1044A0001124EF90FF900F911F91CF91DF919927E9
:1044B00087FD90950895FC010590615070400110B2
:1044C000D8F7809590958E0F9F1F0895DC0101C04D
:1044D0006D9341505040E0F70895FC0161507040E9
:1044E00001900110D8F7809590958E0F9F1F089529
:1044F0000F931F93CF93DF93182F092FEB018B811D
:1045000081FD03C08FEF9FEF20C082FF10C04E815E
:104510005F812C813D81421753077CF4E881F9814A
:104520009F012F5F3F4F39832883108306C0E885A2
:10453000F985812F0995892B29F72E813F812F5FDE
:104540003F4F3F832E83812F902FDF91CF911F917B
:104550000F910895AEE0B0E0E0EBF2E20C942A1D7A
:104560000D891E898F89988D26E02C831A830983F3
:1045700097FF02C080E090E801979E838D83AE0193
:10458000455E5F4F698D7A8DCE0101960E94F518C8
:104590004D815E8157FD0AC02F8138854217530730
:1045A0000CF49A01F801E20FF31F10822E96E4E05A
:1045B0000C94461DFA01AA27283051F1203181F1CF
:1045C000E8946F936E7F6E5F7F4F8F4F9F4FAF4F1B
:1045D000B1E03ED0B4E03CD0670F781F891F9A1F2E
:1045E000A11D680F791F8A1F911DA11D6A0F711DE2
:1045F000811D911DA11D20D009F468943F912AE0EE
:10460000269F11243019305D3193DEF6CF010895D5
:10461000462F4770405D4193B3E00FD0C9F7F6CF06
:10462000462F4F70405D4A3318F0495D31FD4052CE
:10463000419302D0A9F7EACFB4E0A6959795879564
:1046400077956795BA95C9F7009761057105089543
:104650009B01AC010A2E06945795479537952795EF
:10466000BA95C9F7620F731F841F951FA01D089587
:10467000052E97FB1EF400940E944F2357FD07D090
:104680000E94EB1C07FC03D04EF40C944F23509572
:104690004095309521953F4F4F4F5F4F089590952E
:1046A0008095709561957F4F8F4F9F4F08950E9421
:1046B0000D1DA59F900DB49F900DA49F800D911D81
:1046C00011240895B7FF0C9457230E945723821B8F
:0846D000930B0895F894FFCF4D
:1046D80070000000803F210100040700000503204E
:1046E80000010000000302010000010001030201B3
:1046F80000010001256C6400252E326600252E2A53
:02470800660049
:00000001FF
