:100000000C94B6000C94D0040C94F9040C94DE000B
:100010000C94DE000C94DE000C94DE000C94DE00E8
:100020000C94DE000C9482080C94DE000C942806DC
:100030000C94DE000C9404070C94D8050C94DE009C
:100040000C94DE000C94DE000C9499080C94DE00F5
:100050000C94DE000C94DF0F0C94DE000C94DE0098
:100060000C94AB0B0C94DE006E616E00696E660042
:1000700000407A10F35A00A0724E18090010A5D45F
:10008000E80000E87648170000E40B54020000CABC
:100090009A3B000000E1F505000080969800000002
:1000A00040420F000000A086010000001027000061
:1000B0000000E803000000006400000000000A00E7
:1000C000000000000100000000002C76D888DC67EA
:1000D0004F0823DFC1DFAE59E1B1B796E5E3E45342
:1000E000C63AE651997696E8E6C28426EB898C9B5F
:1000F00062ED407C6FFCEFBC9C9F40F2BAA56FA5FF
:10010000F490055A2AF75C936B6CF9676DC11BFC80
:10011000E0E40D47FEF520E6B500D0ED902E03009B
:10012000943577050080841E080000204E0A0000E8
:1001300000C80C333333330F986E12831141EF8DA7
:100140002114893BE65516CFFEE6DB18D1844B38E7
:100150001BF77C1D901DA4BBE424203284725E2218
:100160008100C9F124ECA1E53D27022511241FBE21
:10017000CFEFD8E0DEBFCDBF11E0A0E0B1E0EAE60E
:10018000F4E502C005900D92AE39B107D9F723E02E
:10019000A0EAB1E001C01D92AB36B207E1F711E071
:1001A000CCE6D1E004C02297FE010E947725CA3632
:1001B000D107C9F70E94FB150C94332A0C94000058
:1001C0000E949A0508950E94AA0508950E949A0522
:1001D00008950E94AA0508950E949A0508950E9414
:1001E000AA0508950E949A0508950E94AA050895F7
:1001F0009B0160E040E00E945F0608959B0161E082
:1002000040E00E945F0608959B0160E041E00E948B
:100210005F0608950E94DC0608950E943D07089538
:100220000E94A00708950E94C30508950E94C50575
:1002300008950E94D20508950E94D60508950E944F
:10024000010608950E941B0608950E94B1070895B3
:100250000E94FC0708950E94010808950E94040866
:1002600008950E9407080895BC0188EE93E00E945B
:10027000C90708950E940C0808950E94280808954F
:100280000E947908089541E00E946208089540E0C4
:100290000E94620808950E94BE0508950E946B05A1
:1002A00008950E946F0508950E94660508950F93B2
:1002B0001F938C010E946805F801938382836193E8
:1002C00070831F910F9108950E94E2030895617059
:1002D0000E941304089561700E94550408950E94BD
:1002E000D90D08950E94FD0E08950E94300F0895C3
:1002F0008AE591E0089561EE7AE784E99FE3089545
:100300000E94840F08950E945A0F08950E9445107C
:1003100008950E948B1008958AE591E0089561EE9A
:100320007AE784E99FE308950E94C81008950E9427
:10033000341108950E94220508950E943C050895F5
:100340000E94420508950E94600508950E94B80425
:1003500008950E94BE0408950E94BA0408950E9460
:10036000C00408950E94BC0408950E94C204089528
:100370000E94C40408950E94CA0408950E94C604FD
:1003800008950E94CC0408950E94C80408950E9414
:10039000CE0408950E948C11089500000E94DB088D
:1003A000089581E008950F93A0E0B0E0E1E02A17FE
:1003B0003B074A075B076A077B078A079B0709F029
:1003C000E0E0E170E03039F4017088EE93E0B901CB
:1003D000402F0E9415090F91089581E008950F9311
:1003E000A0E0B0E0E1E02A173B074A075B076A0795
:1003F0007B078A079B0709F0E0E0E170E03039F401
:10040000017088EE93E0B901402F0E9436090F91E8
:1004100008950E940E09089581E008951F93142FF6
:100420000E940C08BC01117088EE93E0412F0E94DD
:1004300036091F91089581E008951F93162FBC017E
:100440009595879595958795959587959595879594
:100450009595879595958795959587959595879584
:100460009595879595958795959587959595879574
:100470009595879595958795959587950E940C08F4
:10048000BC01117088EE93E0412F0E9436091F9144
:10049000089581E008951F93162F682F782F770F06
:1004A000770BCB019595879595958795959587952C
:1004B0009595879595958795959587959595879524
:1004C0009595879595958795959587959595879514
:1004D0009595879595958795959587959595879504
:1004E0000E940C08BC01117088EE93E0412F0E941D
:1004F00036091F91089581E008951F93162FBC01BE
:1005000080E090E00E940C08BC01117088EE93E03E
:10051000412F0E9436091F91089581E008951F938D
:10052000162F682F772780E090E00E940C08BC010E
:10053000117088EE93E0412F0E9436091F910895B3
:1005400081E008951F93142F0E942808BC011170A8
:1005500088EE93E0412F0E9436091F9108950E9472
:10056000560908950E946109089541700E947E090C
:10057000089581E00E94AD09089580E00E94AD09D0
:1005800008950E94B709089581E0089561700E945E
:10059000BD09089581E0089581E008950F93EE2D3F
:1005A000A0E0B0E0F1E02A173B074A075B076A07C3
:1005B0007B078A079B0709F0F0E0F170F03059F4EF
:1005C0000170E17088EE93E0B90141E0202F0E2F19
:1005D0000E94E90902C00E94F9079C0140E050E036
:1005E000BA01CA010F91089581E0089541700E94F7
:1005F000250A08950E94380A08950E94470A08951E
:100600000E946F0A08950E94920A08950E94D20AD9
:1006100008950F931F93182F0E940408082F0E941B
:100620000108AC01602F7727812F0E94F80A1F91E3
:100630000F910895E0E0F0E091E0EE16FF060E075E
:100640001F072E073F074E075F0709F090E09170E4
:10065000903019F4A7010E94F80A089581E00895E6
:100660009E2DA0E0B0E0E1E00A171B072A073B0738
:100670004A075B076A077B0709F0E0E0E170E030BA
:1006800029F49170B801492F0E942E0B0895FF9212
:100690000F931F93142F062FF82E0E94FC07802F14
:1006A0000E94B107812F0E94B1070E940408182FF1
:1006B0000E940108AC01612F77278F2D0E94F80A54
:1006C0001F910F91FF9008951F93182F0E94D20A37
:1006D000812F0E946F0A1F9108950F931F93142F6B
:1006E000082F0E94D20A802F612F0E94920A1F9128
:1006F0000F91089581E0089561700E94CD0C0895D6
:100700000E94E50C08950E94EA0C08950E94EF0CE7
:1007100008950E94F40C08950E94F90C08950E9417
:10072000FE0C08950E94180D08950E942F0D089543
:100730000E943E0D08950E941E0D08951F930E9471
:100740000408182F0E940108BC01812F99270E94DC
:10075000650D1F910895A0E0B0E0E1E00A171B07C6
:100760002A073B074A075B076A077B0709F0E0E0B7
:10077000E170E03019F4B8010E94650D089581E040
:1007800008950F93A0E0B0E0E1E02A173B074A0785
:100790005B076A077B078A079B0709F0E0E0E170C7
:1007A000E03029F40170C901602F0E94800D0F9183
:1007B00008950E94B60D08950E946C0A08950E9443
:1007C000D30D0895282F30E028303105DCF02E308D
:1007D0003105A4F02531310524F586B12E503109BB
:1007E00041E050E002C0440F551F2A95E2F790E027
:1007F0004823592381E0452BA1F0089583B1285067
:100800003109EECF99B121E030E002C0220F331F51
:100810008A95E2F7892F90E02823392381E0232B62
:1008200061F780E00895282F30E0283031056CF41E
:100830009BB121E030E0082E01C0220F0A94EAF7B4
:10084000662341F1922B9BB908952E3031057CF43B
:1008500045B12850310981E090E0022E01C0880F97
:100860000A94EAF76623D1F0482B45B9089525315B
:1008700031057CF448B12E50310981E090E0022E20
:1008800001C0880F0A94EAF761110CC08095842397
:1008900088B90895209529232BB90895809584233C
:1008A00085B90895482B48B90895282F30E066236C
:1008B000B1F028303105B4F12E303105F4F1253195
:1008C00031051CF547B12E50310981E090E0022E30
:1008D00001C0880F0A94EAF7482B47B908952830D9
:1008E0003105A4F02E303105ACF1253131056CF421
:1008F00047B12E50310981E090E0022E01C0880FEF
:100900000A94EAF78095842387B908959AB121E083
:1009100030E0082E01C0220F0A94EAF7209529231F
:100920002AB908959AB121E030E0082E01C0220FC3
:100930000A94EAF7922B9AB9089544B128503109E4
:1009400081E090E0022E01C0880F0A94EAF7482B5C
:1009500044B9089544B12850310981E090E0022E55
:1009600001C0880F0A94EAF78095842384B908951A
:1009700085B1089588B108958BB1089585B908951A
:1009800088B908958BB9089584B1089587B1089501
:100990008AB1089584B9089587B908958AB90895E8
:1009A0001F920F920FB60F9211242F933F934F93E4
:1009B0005F936F937F938F939F93AF93BF93EF93C7
:1009C000FF93E091A201F091A301309709F00995FE
:1009D000FF91EF91BF91AF919F918F917F916F9117
:1009E0005F914F913F912F910F900FBE0F901F90ED
:1009F00018951F920F920FB60F9211242F933F93C9
:100A00004F935F936F937F938F939F93AF93BF9316
:100A1000EF93FF93E091A001F091A101309709F0CD
:100A20000995FF91EF91BF91AF919F918F917F9128
:100A30006F915F914F913F912F910F900FBE0F904B
:100A40001F901895CF93C82F7093A3016093A201B4
:100A50008AE090E00E949A05F89481E08CBBE898C7
:100A6000E9E6F0E090818C2F83709C7F892B808356
:100A7000E89A7894CF9108951092A3011092A20160
:100A8000E8980895CF93C82F7093A1016093A001B7
:100A90008AE090E00E949A05F89482E08CBBE99885
:100AA000E9E6F0E0208190818C2F8370880F880F19
:100AB000937F892B82238083E99A7894CF9108953C
:100AC0001092A1011092A001E99808950C94402879
:100AD0000E94402808950E944028CB010895BC013F
:100AE00080E090E00C9445289F938F937F936F93C1
:100AF00082E291E09F938F931F928FE08F9386EA1B
:100B000091E09F938F930E9473298DB79EB70A96A9
:100B10000FB6F8949EBF0FBE8DBF41E066EA71E04C
:100B20008AE090E00C94360941E0BC0182E390E059
:100B30000C943609009769F020E030E0EFE9FFE01F
:100B40003197F1F700C000002F5F3F4F281739079A
:100B5000A9F7089596958795969587959695879583
:100B6000009759F020E030E04AE24A95F1F700C0E2
:100B70002F5F3F4F28173907B9F708958091A401D7
:100B80009091A501089516BC0895833041F08230FC
:100B900009F0089586E085BD14BC16BC089587E071
:100BA00085BDFACF14BC15BC16BC089586B5089552
:100BB0001F920F920FB60F9211242F933F934F93D2
:100BC0005F936F937F938F939F93AF93BF93EF93B5
:100BD000FF93E0913C02F0913D02309709F00995B6
:100BE000FF91EF91BF91AF919F918F917F916F9105
:100BF0005F914F913F912F910F900FBE0F901F90DB
:100C0000189550933D0240933C02833089F0823026
:100C100051F067BD82E084BD80916E008260809358
:100C20006E007894089586E085BD14BC16BCF1CFA3
:100C300087E085BDFACF10923D0210923C02EEE6AD
:100C4000F0E080818D7F808314BC15BC16BC0895B4
:100C50001F920F920FB60F9211242F933F934F9331
:100C60005F936F937F938F939F93AF93BF93EF9314
:100C7000FF93E0913A02F0913B02309791F0099591
:100C8000FF91EF91BF91AF919F918F917F916F9164
:100C90005F914F913F912F910F900FBE0F901F903A
:100CA00018958091380290913902892B49F35B9A0B
:100CB000E0913802F091390209955B98E1CF662303
:100CC00001F1309339022093380210928000109283
:100CD000850010928400442301F129E020938100D3
:100CE00048EC489F9001499F300D112430938900B2
:100CF0002093880080916F00826080936F007894C9
:100D0000089530933B0220933A0210928000109293
:100D10008500109284004111E0CF9C0121503109DF
:100D2000273441E03407A0F42AE02093810048EC06
:100D3000489F9001499F300D1124309389002093E2
:100D4000880080916F00826080936F00789408958E
:100D50002F3F334AD0F42DE0209381009C01A8EC72
:100D6000B0E00E942F2537E0969587957795679597
:100D70003A95D1F7709389006093880080916F0055
:100D8000826080936F007894089510923B021092D5
:100D90003A02109239021092380210926F008FEFCF
:100DA00086BB81E08093800083E080938100109275
:100DB000850010928400089510923B0210923A022E
:100DC000109239021092380210926F008FEF86BB9A
:100DD00081E08093800083E0809381001092850001
:100DE00010928400089510923702109236021092E9
:100DF0006F008FEF86BB10928000109281001092DE
:100E000085001092840008951F920F920FB60F92E2
:100E100011242F933F934F935F936F937F938F93FF
:100E20009F93AF93BF93EF93FF93E0913602F091BE
:100E30003702309789F009951092370210923602E6
:100E400010926F008FEF86BB10928000109281008D
:100E50001092850010928400FF91EF91BF91AF91A5
:100E60009F918F917F916F915F914F913F912F91C2
:100E70000F900FBE0F901F9018950F931F93209106
:100E8000360230913702232B19F01F910F910895EC
:100E900010926F002FEF26BB1092800010928100FD
:100EA00010928500109284008B019C01000F111F8D
:100EB000221F331F000F111F221F331F000F111F8E
:100EC000221F331F000F111F221F331F0115110591
:100ED000E1E02E07310510F101151105210584E02F
:100EE000380798F650933702409336024AE0369519
:100EF0002795179507954A95D1F7119501951109F1
:100F0000109385000093840085E08093810081E048
:100F100080936F0078941F910F910895509337023A
:100F20004093360240EF46039001479F300D112455
:100F3000309385002093840081E080938100E7CF87
:100F4000109237021092360210926F008FEF86BB1C
:100F500010928000109281001092850010928400FF
:100F60000895A091B501AF3791F0E1E0EA0FE09369
:100F7000B501BB27A7FDB095AA54BE4F8C93FF27A0
:100F8000E7FDF095EA54FE4F108281E0089580E07D
:100F900008951092B5010097E9F0FB015491552393
:100FA00029F140E006C0FB01E20FF31F54915523E5
:100FB000A1F0A42FBB27A7FDB095AA54BE4F5C9308
:100FC0004F5F242F332727FD30952817390758F313
:100FD0004093B50186EB91E008954093B501F90186
:100FE000EA54FE4F108286EB91E00895E0E0F0E0D5
:100FF000F7CF8CE991E008951092B5011092B601F7
:10100000089586EB91E008958091B501089590913F
:10101000B50180E8891B08959F938F937F936F9309
:1010200082E291E09F938F931F928FE08F9386EAE5
:1010300091E09F938F930E9473298DB79EB70A9674
:101040000FB6F8949EBF0FBE8DBF86EA91E008955B
:101050009F938F937F936F9386E291E09F938F93FB
:101060001F928FE08F9386EA91E09F938F930E9467
:1010700073298DB79EB70A960FB6F8949EBF0FBE20
:101080008DBF86EA91E008959F938F937F936F932E
:101090001F924F938BE291E09F938F931F928FE06B
:1010A0008F9386EA91E09F938F930E9473298DB767
:1010B0009EB70C960FB6F8949EBF0FBE8DBF86EA02
:1010C00091E0089541110AC080799170F999FECF9D
:1010D00092BD81BD60BDFA9AF99A0895F999FECF43
:1010E0008079917092BD81BDF89A20B56213EECFE0
:1010F0000895F999FECF8079917092BD81BDF89ADB
:1011000080B508951F920F920FB60F9211248F93FE
:101110009F938091A4019091A50101969093A501C0
:101120008093A4019F918F910F900FBE0F901F90FD
:1011300018951F920F920FB60F9211242F938F9331
:101140009F93EF93FF938091480281111EC0E0911D
:101150004A0281E08E0F80934A029091C600FF27D9
:10116000E7FDF095E45BFD4F9083992787FD90950F
:101170008F77907897FD13C080934A0291E0209179
:101180004B02281390E090934802FF91EF919F91BA
:101190008F912F910F900FBE0F901F901895019770
:1011A00080689F6F019680934A0291E020914B02E4
:1011B0002813E8CFE8CF9C0140E050E0220F331F16
:1011C000441F551F220F331F441F551F220F331F6B
:1011D000441F551F220F331F441F551F60E074E248
:1011E00084EF90E00E940D252150310941095109F9
:1011F000BB2757FDBA95A52F942F832F8093C50049
:101200002093C400E2ECF0E0808186608083E1EC12
:10121000F0E0808188698083789408959091C0007F
:1012200095FFFCCF8093C60008950097A1F0FB01C5
:101230003491332381F03196860F971F2091C0009F
:1012400025FFFCCF3093C600E817F90721F0349151
:1012500031963111F3CF442341F08091C00085FFD6
:10126000FCCF8AE08093C60008950895009799F016
:10127000FB013081332379F03196860F971F20913F
:10128000C00025FFFCCF3093C600E817F90719F01E
:1012900031913111F4CF442341F08091C00085FF9A
:1012A000FCCF8AE08093C6000895089590914B0288
:1012B00080914A02981711F081E0089580914802C8
:1012C00008952091480290914A0280914B0298170C
:1012D00091F09FB7F894E0914B0281E08E0F8093DC
:1012E0004B02FF27E7FDF095E45BFD4F80811092F4
:1012F00048029FBF08952111ECCFFFCFFF920F93BB
:101300001F93CF93DF931F92CDB7DEB7182FF62E22
:1013100000911F01602F8BE049830E945504602FCC
:101320008DE00E945504602F8AE00E945504812FB1
:1013300083708065498190E2499FA0011124842B2C
:101340006F2D6370660F660F682B6CBD0F90DF9179
:10135000CF911F910F91FF900895811104C08DB519
:101360008E7F8DBD08958DB581608DBD08958EBD34
:101370000DB407FEFDCF8EB508950097D1F0AC01F6
:1013800020E030E01EBC0DB407FEFDCF7EB5203856
:101390003105D4F02F5F3F4F2817390799F766239F
:1013A00029F0203831054CF01092660387EE92E068
:1013B00008956623D9F340E050E0FA01E951FD4F6A
:1013C000108287EE92E00895F901E951FD4F708394
:1013D000E1CF0F93009749F1A0E0B0E050E0E0E0EA
:1013E000F0E0442301F1A60FB71F5C9151111BC01F
:1013F00021110EC030E03EBD0DB407FEFDCF3EB55D
:10140000E038F105ECF03196DF01E817F90749F70C
:10141000002329F0E038F10564F01092660387EEAE
:1014200092E00F910895352FE6CF0023C1F3E0E05D
:10143000F0E0E951FD4F108287EE92E00F910895A0
:10144000DF01A951BD4F3C93DECF63706093B900BB
:101450008093B80084E08093BC00411101C00895DE
:1014600061E082E10E94130461E083E10C941304C3
:1014700084EA8093BC008091BC0087FFFCCF9091F0
:10148000B900987F81E0983009F080E0089584E900
:101490008093BC0008958093BB0084E88093BC00D7
:1014A0008091BC0087FFFCCF9091B900987F81E0CC
:1014B000983209F080E00895882351F084EC8093FD
:1014C000BC008091BC0087FFFCCF8091BB000895D9
:1014D00084E88093BC00F5CF8091B900089594EA28
:1014E0009093BC009091BC0097FFFCCF9091B90005
:1014F000880F8F5F8093BB0084E88093BC0080914D
:10150000BC0087FFFCCF8091B90084E88093BC00C9
:101510008091BC0087FFFCCF8091BB0094E9909341
:10152000BC00089594EA9093BC009091BC0097FF92
:10153000FCCF9091B900880F8F5F8093BB0084E847
:101540008093BC008091BC0087FFFCCF8091B900E4
:10155000262F30E021153105E1F0E7EEF2E080E0E2
:1015600090E054E864EC019682179307C4F4803845
:101570009105A9F06093BC004091BC0047FFFCCFEF
:101580004091BB0041938217930719F08038910571
:1015900051F784E98093BC0087EE92E00895509360
:1015A000BC00EACF94EA9093BC009091BC0097FFF6
:1015B000FCCF9091B90090E0880F991F8093BB00F9
:1015C00084E88093BC008091BC0087FFFCCF8091B1
:1015D000B9006093BB0084E88093BC008091BC009C
:1015E00087FFFCCF8091B90084E98093BC00089507
:1015F00094EA9093BC009091BC0097FFFCCF90912F
:10160000B90090E0880F991F8093BB0084E8809315
:10161000BC008091BC0087FFFCCF8091B9006115B0
:101620007105C1F0FA0180818823A1F03196640F21
:10163000751F94E88093BB009093BC008091BC0020
:1016400087FFFCCF8091B900E617F70719F0819169
:101650008111F0CF84E98093BC0008950F931F930C
:10166000CF93DF931F92CDB7DEB78B0194EA9093AF
:10167000BC009091BC0097FFFCCF9091B90090E026
:10168000880F991F8093BB0084E88093BC008091F1
:10169000BC0087FFFCCF8091B90068EE73E0C80101
:1016A00049830E94362949810097C9F0F8012491A5
:1016B0002223A9F03196800F911F34E82093BB00BC
:1016C0003093BC002091BC0027FFFCCF2091B900D3
:1016D000E817F90721F0249131962111EFCF442327
:1016E00061F08AE08093BB0084E88093BC00809125
:1016F000BC0087FFFCCF8091B90084E98093BC00D7
:101700000F90DF91CF911F910F910895CF93DF93A9
:101710001F92CDB7DEB78093BB0080E391E0698371
:101720000E9494056981662391F084EC8093BC004B
:1017300085E491E00E9494058091BC0087FFFCCF76
:1017400085E591E00F90DF91CF910C94940584E8AA
:101750008093BC00EDCF1F920F920FB60F92112411
:10176000AF92BF92CF92DF92EF92FF920F931F93AF
:101770002F933F934F935F936F937F938F939F9399
:10178000AF93BF93EF93FF93CF93DF931F92CDB7A8
:10179000DEB78091B900887F803639F18091B90039
:1017A000887F883A09F44BC08091BC00856C809397
:1017B000BC000F90DF91CF91FF91EF91BF91AF915E
:1017C0009F918F917F916F915F914F913F912F9159
:1017D0001F910F91FF90EF90DF90CF90BF90AF904F
:1017E0000F900FBE0F901F901895E7EEF2E060E0AB
:1017F00070E024EC2093BC008091BC0087FFFCCFFC
:101800009091BB008091B900887F803829F0809149
:10181000B900887F883831F491936F5F7F4F6038CB
:10182000710541F7E0914402F0914502309709F4C7
:1018300094C087EE92E0099510924902B5CFE091ED
:101840004202F09143023097D9F11982CE010196FC
:1018500009957C01C980CC2009F4A6CFD12CA4E83D
:10186000AA2EB4ECBB2E0D2D10E0F701E00FF11FF6
:1018700080818093BB0080E391E00E9494052C2D31
:1018800030E021503109021713070CF063C0B09209
:10189000BC0085E491E00E9494058091BC0087FF24
:1018A000FCCF85E591E00E9494058091B900887F86
:1018B000883B09F079CFD394C980DC14A0F274CFAF
:1018C00080913E0290913F02892B09F46DCF809167
:1018D0004902882309F468CF82E691E00E949405CA
:1018E0006091490270E080E090E00E947405E09110
:1018F0003E02F0913F02809149020995182F8EE730
:1019000091E00E949405612F70E080E090E00E94D9
:10191000740582E991E00E9494051093BB0080E376
:1019200091E00E94940584E88093BC0085E491E0F6
:101930000E9494058091BC0087FFFCCF85E591E073
:101940000E949405109249028091BC00856C80939E
:10195000BC002FCFA092BC009CCFE0914002F09140
:101960004102309759F06230710544F08091E702EE
:10197000809349026091E802099516CF80913E025A
:1019800090913F02892B09F40FCF672B09F40CCFFC
:101990008091E7028093490207CFCF93C82F662337
:1019A00041F061E082E10E94130461E083E10E9462
:1019B0001304CC0FC093BA0084E08093BC0085EC84
:1019C0008093BC007894CF910895909347028093C0
:1019D000460208959093450280934402089590939F
:1019E0004302809342020895909341028093400203
:1019F000089590933F0280933E020895ECEBF0E04F
:101A000080818E7F8083109247021092460210924E
:101A10004502109244021092430210924202109228
:101A200041021092400210923F0210923E0208952D
:101A30008091BC00881F8827881F08958093BB0071
:101A400084E88093BC008091BC0087FFFCCF80912C
:101A5000B9008091BC00856C8093BC00089584EC33
:101A60008093BC008091BC0087FFFCCF8091BB00BD
:101A70009091BC00956C9093BC000895282F30E0A5
:101A800021153105E1F0E7EEF2E080E090E054E866
:101A900064EC019682179307ACF48038910591F0BD
:101AA0006093BC004091BC0047FFFCCF4091BB005D
:101AB00041938217930719F08038910551F787EE0B
:101AC00092E008955093BC00EDCF0097C1F0FB0168
:101AD00020812223A1F03196860F971F34E82093AE
:101AE000BB003093BC002091BC0027FFFCCF2091AD
:101AF000B900E817F90719F021912111F0CF0895E5
:101B00001F93CF93DF93EC01162F68EE73E00E94D2
:101B100036290097C9F0FE0124912223A9F03196BD
:101B20008C0F9D1F34E82093BB003093BC002091A4
:101B3000BC0027FFFCCF2091B900E817F90721F07E
:101B4000249131962111EFCF112361F08AE0809327
:101B5000BB0084E88093BC008091BC0087FFFCCF71
:101B60008091B900DF91CF911F910895ECEBF0E0E7
:101B700080818E7F808310924702109246021092DD
:101B800045021092440210924302109242021092B7
:101B900041021092400210923F0210923E021092B7
:101BA000BA0010820895ECEBF0E08081856C8083B0
:101BB0000895CF93DF93C82FD62F60911F010E9405
:101BC0005504C63009F460C050F0CA30C1F0CB30C3
:101BD00009F44AC0C93031F1DF91CF910895C33083
:101BE000A1F1C530C9F7DD2309F459C0DF3F09F47D
:101BF000B3C083E284BD83E085BDD8BDEDCFDD23D6
:101C000009F48CC0DF3F09F498C081E28093800022
:101C100083E0809381006D2F70E070938B00609360
:101C20008A00DACFDD2309F46AC0DF3F09F4ACC0D3
:101C300081E88093800083E0809381006D2F70E0C5
:101C40007093890060938800C7CFDD2309F449C0F1
:101C5000DF3F09F48BC081E28093B00084E0809381
:101C6000B100D093B400B8CFDD2369F1DF3F09F4B0
:101C7000A4C081E88093B00084E08093B100D09349
:101C8000B300DF91CF910895DD2399F0DF3F09F490
:101C90008AC083E884BD83E085BDD7BD9DCF14BCD9
:101CA00015BC18BC6091200185E0DF91CF910C94A8
:101CB000130414BC15BC17BC6091200186E0DF91B1
:101CC000CF910C9413041092B00082E08093B10085
:101CD0001092B300609120018BE0DF91CF910C94C2
:101CE00013041092B00082E08093B1001092B4000F
:101CF0006091200183E0DF91CF910C941304109246
:101D000080001092810010928900109288006091EA
:101D1000200189E0DF91CF910C9413041092800090
:101D20001092810010928B0010928A006091200125
:101D30008AE0DF91CF910C941304109280001092EE
:101D4000810010928B0010928A00609121018AE03C
:101D5000DF91CF910C94130414BC15BC18BC609196
:101D6000210185E0DF91CF910C9413041092B00013
:101D700082E08093B1001092B4006091210183E071
:101D8000DF91CF910C941304109280001092810087
:101D900010928900109288006091210189E0DF9102
:101DA000CF910C94130414BC15BC17BC6091210195
:101DB00086E0DF91CF910C9413041092B00082E082
:101DC0008093B1001092B300609121018BE0DF910C
:101DD000CF910C94130487E880937A0080E4809379
:101DE0007C008AE090E00E949A0561E08DE00E940C
:101DF000550460E08DE00C941304CF93C82F883015
:101E0000C0F480917A0087FF18C0C064C0937C0042
:101E100080917A00806480937A0080917A0086FDB8
:101E2000FCCF809178002091790090E0922BCF91A7
:101E3000089580E090E0CF91089587E880937A003C
:101E400080E480937C008AE090E00E949A0561E043
:101E50008DE00E94550460E08DE00E941304D5CF10
:101E600080917A0087FF13C088EC80937C0080917A
:101E70007A00806480937A0080917A0086FDFCCF9E
:101E8000809178002091790090E0922B089587E866
:101E900080937A0080E480937C008AE090E00E9446
:101EA0009A0561E08DE00E94550460E08DE00E949B
:101EB0001304DACF80917A0087FF13C08EE48093F9
:101EC0007C0080917A00806480937A0080917A000F
:101ED00086FDFCCF809178002091790090E0922BD4
:101EE000089587E880937A0080E480937C008AE0FC
:101EF00090E00E949A0561E08DE00E94550460E048
:101F00008DE00E941304DACFCF92DF92EF92FF921E
:101F10000F931F93CF93DF938C016A017B01809114
:101F20007A0087FF2AC088EC80937C0080917A0039
:101F3000806480937A0080917A0086FDFCCFC09106
:101F4000780080917900D0E0D82B0115110549F077
:101F500020E030E0A901C701B6010E947B25811174
:101F60001FC0CE0181529140DF91CF911F910F91FF
:101F7000FF90EF90DF90CF90089587E880937A00EC
:101F800080E480937C008AE090E00E949A0561E002
:101F90008DE00E94550460E08DE00E941304C3CFE1
:101FA000BE01601B710B80E090E00E941826A70123
:101FB00096010E947F250E94E725CB01D5CF1F9275
:101FC0000F920FB60F9211242F933F934F935F936D
:101FD0006F937F938F939F93AF93BF93CF93DF9331
:101FE000EF93FF9380917A00877F80937A00E0914E
:101FF000D102F091D2023097F1F0809178002091D7
:10200000790090E0922B09951092D2021092D102A1
:10201000FF91EF91DF91CF91BF91AF919F918F9100
:102020007F916F915F914F913F912F910F900FBED4
:102030000F901F901895C091CF02D091D002209799
:1020400039F3609178008091790070E0782B80916D
:10205000040190910501681B790B80E090E00E94DB
:102060001826209100013091010140910201509108
:1020700003010E947F250E94E725CB01FE010995FF
:102080001092D0021092CF02C3CF1F93CF93DF9351
:10209000182FEB01883070F480917A0087FF0FC011
:1020A00080917A0086FD06C02091D1023091D20243
:1020B000232BE1F080E0DF91CF911F91089587E815
:1020C00080937A0080E480937C008AE090E00E9414
:1020D0009A0561E08DE00E94550460E08DE00E9469
:1020E000130480917A0086FFDFCFE4CF2091CF02E6
:1020F0003091D002232BF1F6D093D202C093D102BB
:10210000106410937C0080917A00886480937A0038
:10211000789481E0D0CFCF93DF93EC0180917A0067
:1021200087FF0EC080917A0086FD06C02091D10203
:102130003091D202232BB9F080E0DF91CF91089546
:1021400087E880937A0080E480937C008AE090E0C6
:102150000E949A0561E08DE00E94550460E08DE0E8
:102160000E941304DFCF8091CF029091D002892B7F
:1021700019F7D093D202C093D10288EC80937C00EF
:1021800080917A00886480937A00789481E0D5CF3A
:10219000CF92DF92EF92FF920F931F93CF93DF9333
:1021A00000D0CDB7DEB78C016A017B0180917A0047
:1021B00087FF16C080917A0086FD06C04091D1024B
:1021C0005091D202452B19F180E00F900F90DF91D2
:1021D000CF911F910F91FF90EF90DF90CF900895D6
:1021E00087E880937A0080E480937C008AE090E026
:1021F00029833A830E949A0561E08DE00E9455048C
:1022000060E08DE00E9413043A812981D3CF809150
:10221000CF029091D002892BB9F63093D00220934F
:10222000CF0201151105A9F020E030E0A901C70196
:10223000B6010E947B25882361F01093050100936D
:102240000401C0920001D0920101E0920201F092DB
:10225000030188EC80937C0080917A0088648093ED
:102260007A00789481E0B1CFCF93DF93EC01809135
:102270007A0087FF0EC080917A0086FD06C020910B
:10228000D1023091D202232BB9F080E0DF91CF91BF
:10229000089587E880937A0080E480937C008AE048
:1022A00090E00E949A0561E08DE00E94550460E094
:1022B0008DE00E941304DFCF8091CF029091D00275
:1022C000892B19F7D093D202C093D1028EE4809368
:1022D0007C0080917A00886480937A00789481E011
:1022E000D5CFFB01DC014D915D916D917C911397F0
:1022F000452B462B472B09F008954FEF5FEFBA01AE
:102300004D935D936D937C93139780E090E00994D7
:102310000C94CA260C946227FF920F931F93CF93BD
:10232000DF937FB7F894282F30E0A1E0B0E0AD0153
:1023300002C0440F551F8A95E2F7CA01FA01E095E1
:10234000F095A90148505109ED0102C0CC0FDD1FE5
:102350004A95E2F7AE01C095D09589010E5011095A
:1023600002C0AA0FBB1F0A95E2F78D0100951095D8
:102370006894FF24F3F8283031050CF442C02E3065
:1023800031050CF05FC085B19A01282B85B190E032
:102390008C239D2367FD80C025B90000000000004C
:1023A0000000000085B900000000000000000000EF
:1023B000000000000000000000000000000000001D
:1023C000660FFA9401F77FBFDF91CF911F910F91B4
:1023D000FF9008954BB900000000000000000000CD
:1023E0002BB9000000000000000000000000000009
:1023F000000000000000000000000000660FFA94DA
:1024000011F32BB1AC01422B2BB130E02E233F2333
:1024100067FFE0CF4BB900000000000000000000A3
:1024200000000000000000000000000000000000AC
:102430002BB90000000000000000000000000000B8
:102440000000DCCF253131050CF588B19D01282B2A
:1024500088B190E08023912367FD3AC028B900003D
:10246000000000000000000088B90000000000002B
:10247000000000000000000000000000000000005C
:1024800000000000660FFA9401F79DCFFA9409F45A
:102490009ACFFA94D9F797CF25B900000000000031
:1024A000000000000000000000000000000000002C
:1024B0000000000085B900000000000000000000DE
:1024C000000000000000660FFA9409F05CCF7BCF9B
:1024D00028B900000000000000000000000000001B
:1024E00000000000000000000000000088B90000AB
:1024F0000000000000000000000000000000C2CF4B
:10250000A3E1B0E0E6E8F2E10C943E257C011B017A
:102510006A01FC0117821682838181FF66C3BE01B6
:102520006F5F7F4F4B01F7019381F10193FD85911F
:1025300093FF81911F01882309F453C3853239F435
:1025400093FD859193FF81911F01853239F4B70185
:1025500090E00E94412956016501E5CF10E0512C21
:1025600020E02032A0F48B3269F030F4803259F050
:10257000833269F420612CC08D3239F0803339F414
:10258000216026C02260246023C0286021C027FD6E
:1025900027C030ED380F3A3078F426FF06C0FAE055
:1025A0001F9F300D1124132F13C06AE0569E300D6B
:1025B0001124532E20620CC08E3221F426FD11C34B
:1025C000206406C08C3611F4206802C0883641F4BD
:1025D000F10193FD859193FF81911F018111C1CF7D
:1025E0009BEB980F933018F42061805E06C09BE946
:1025F000980F933008F0AAC12F7E26FF16E02F73A4
:10260000722E853621F4F22FF0647F2E08C08636B4
:1026100021F4622F6068762E02C01111115077FEEE
:1026200007C01C3348F444244394410E27E00BC0F8
:10263000183030F4212F06C027E04CE3442E03C0AD
:1026400027E017E0412C560174E0A70EB11CF601FB
:102650006081718182819381042DA4010E9453289D
:102660006C01098100FF02C003FF06C071FC07C0B6
:1026700072FC08C0612C08C03DE2632E05C02BE24D
:10268000622E02C090E2692E802F8C7099F1662034
:1026900011F084E001C083E0851510F0512C0BC0CF
:1026A000581A73FC08C0B70180E290E00E944129EB
:1026B0005A94C9F7F3CF662029F0B701862D90E030
:1026C0000E94412903FD03C00CE610E002C008E6A9
:1026D00010E0F72DF0717F2EF8018491882309F422
:1026E00076C271108052B70190E00E9441290F5FBD
:1026F0001F4FF2CF77FE0FC04C0C04FF04C08A813D
:10270000813309F44A94141474F5F8E0F41578F55B
:1027100088E0482E2CC076FC2AC0812F90E08C15D2
:102720009D059CF06CEFC6166FEFD60674F0772D02
:102730007068772E0AC0E2E0F0E0EC0FFD1FE10FB9
:10274000F11D8081803319F411501111F4CF77FEFF
:102750000EC044244394410E812F90E0C816D90640
:102760002CF41C1904C04424439401C010E077FEEB
:1027700007C01C141D043CF496012F5F3F4F05C099
:1027800025E030E002C021E030E0662011F02F5F4C
:102790003F4F112331F0412F50E04F5F5F4F240F27
:1027A000351F452D50E02417350714F4521A01C087
:1027B000512C872D897049F4552039F0B70180E2FA
:1027C00090E00E9441295A94F7CF662029F0B70182
:1027D000862D90E00E94412973FC09C0552039F0F4
:1027E000B70180E390E00E9441295A94F7CF77FE29
:1027F0005FC09C2D8D2DD7FE02C090E080E0692E39
:10280000782E40E050E0C601841991099D878C879D
:10281000960126193709280D391D812F90E0EE27E2
:10282000FF27E81BF90BFF87EE87FFEF6F167F0688
:1028300069F4B7018EE290E02B8B3A8B488B598B71
:102840000E944129598948893A892B89C614D7049D
:1028500054F06C857D85661577052CF4F901E40F3D
:10286000F51F818101C080E371E0671A71084F5F35
:102870005F4FEE85FF856E167F066CF0B70190E026
:102880002B8B3A8B488B598B0E9441292B893A8993
:1028900048895989CACF6C147D0439F49A819633DA
:1028A00018F4953311F404FF81E3B70190E04BC0B5
:1028B0008A81813309F00F7EB70190E00E9441299F
:1028C000111105C074FE18C085E490E017C0B7016F
:1028D0008EE290E00E94412982E066246394680EB3
:1028E000F401E80FF11D8081B70190E00E944129B9
:1028F000115041F3862DF1CF85E690E0B7010E949B
:102900004129D7FC05C0C114D10439F404FF05C026
:10291000D194C194D1088DE201C08BE2B70190E05F
:102920000E94412980E36AE0C616D1042CF08F5F33
:10293000FAE0CF1AD108F7CFB70190E00E94412901
:10294000B701C601C0960E94412941C1833631F0CA
:10295000833779F0833509F058C021C0560172E001
:10296000A70EB11CF6018081898301E010E06401AB
:1029700014C05601F2E0AF0EB11CF601C080D18048
:1029800026FF03C0612F70E002C06FEF7FEFC6012A
:102990002B8B0E9436298C012B892F7715C056016D
:1029A000F2E0AF0EB11CF601C080D18026FF03C05B
:1029B000612F70E002C06FEF7FEFC6012B8B0E948A
:1029C0002B298C012B892068722E23FD1AC0852D9E
:1029D00090E008171907A8F4B70180E290E00E9480
:1029E00041295A94F4CFF60177FC859177FE8191C5
:1029F0006F01B70190E00E94412951105A94015093
:102A000011090115110579F7E2C0843611F08936F4
:102A100051F5560127FF09C0F4E0AF0EB11CF601D5
:102A200060817181828193810AC0F2E0AF0EB11C96
:102A3000F60160817181882777FD8095982F022F9C
:102A40000F7697FF08C090958095709561957F4FA0
:102A50008F4F9F4F00682AE030E0A4010E94A32915
:102A6000C82EC8183EC0022F853721F40F7E2AE0F9
:102A700030E01DC0097F8F3691F018F4883559F089
:102A8000B0C0803719F0883711F0ABC0006104FF87
:102A900009C0046007C024FF08C0066006C028E023
:102AA00030E005C020E130E002C020E132E0560114
:102AB00007FF09C0F4E0AF0EB11CF601608171811F
:102AC0008281938108C0F2E0AF0EB11CF6016081F3
:102AD000718180E090E0A4010E94A329C82EC8184B
:102AE0000F7706FF0BC0202F2E7FC11650F404FF76
:102AF0000AC002FD08C0202F2E7E05C0DC2C202F2E
:102B000003C0DC2C01C0D12E24FF0DC0FE01EC0D52
:102B1000F11D8081803311F4297E09C022FF06C097
:102B2000D394D39404C0822F867809F0D39423FDE4
:102B300013C020FF06C01C2DD51418F4150D1D1947
:102B4000D52CD51468F4B70180E290E02B8B0E945D
:102B50004129D3942B89F5CFD51410F45D1801C009
:102B6000512C24FF12C0B70180E390E02B8B0E9410
:102B700041292B8922FF17C021FF03C088E590E07F
:102B800002C088E790E0B7010CC0822F867859F028
:102B900021FD02C080E201C08BE227FD8DE2B7017A
:102BA00090E00E944129C11638F4B70180E390E01B
:102BB0000E9441291150F7CFCA94F401EC0DF11D88
:102BC0008081B70190E00E944129C110F5CF5520C6
:102BD00009F4C2CCB70180E290E00E9441295A94E6
:102BE000F6CFF7018681978102C08FEF9FEF639642
:102BF000E2E10C945A25CF93DF932F923F924F92AC
:102C00005F926F927F928F929F92AF92BF92CF927C
:102C1000DF92EF920F931F93CDB7DEB724970FB6D5
:102C2000F894DEBF0FBECDBF68E170E08DE041E0FB
:102C300021E00E94831D0E94FF1D88EE93E00E9408
:102C4000E000CE010196FC0133965F01FC01329653
:102C50004F0101966C0104E110E00E94B5160E943C
:102C600065170E94FF1DCE0101960E94B81BD50179
:102C70002C913D01D4014C912D01D6016C911D0187
:102C8000898190E0E92E0E94811FCE0101960E9469
:102C9000B81BD3012C91D2014C91D1016C91898147
:102CA00091E0E92E0E94811FCE0101960E94C21B75
:102CB000D3012C91D2014C91D1016C91898190E08A
:102CC000E92E0E94811FCE0101960E94C21BD301F2
:102CD0002C91D2014C91D1016C91898191E0E92E26
:102CE0000E94811FCE0101960E94CC1BD3012C9122
:102CF000D2014C91D1016C91898190E0E92E0E9422
:102D0000811FCE0101960E94CC1BD3012C91D201D0
:102D10004C91D1016C91898191E0E92E0E94811F33
:102D2000CE0101960E94101CD3012C91D2014C912E
:102D3000D1016C91898190E0E92E0E94811FCE0122
:102D400001960E94101CD3012C91D2014C91D1010B
:102D50006C91898191E0E92E0E94811F0E94E11906
:102D60000E94921A0E94401B78CFCF93DF930F935B
:102D70001F93CDB7DEB724970FB6F894DEBF0FBE12
:102D8000CDBF0E94FF1DCE0101960E94B81B2C8171
:102D90004B816A8189810E94AF1E08EE13E0C80151
:102DA0000E94E000CE0101960E94C21B2C814B8143
:102DB0006A8189810E94AF1EC8010E94E000CE0195
:102DC00001960E94CC1B2C814B816A8189810E94D3
:102DD000AF1EC8010E94E000CE0101960E94D61BE2
:102DE0002C814B816A8189810E94AF1EC8010E949B
:102DF000E000CE0101960E94E01B2C814B816A818C
:102E000089810E94AF1EC8010E94E000CE01019698
:102E10000E94E81B2C814B816A8189810E94AF1E30
:102E2000C8010E94E000CE0101960E94F21B2C8195
:102E30004B816A8189810E94AF1EC8010E94E00017
:102E4000CE0101960E94FC1B2C814B816A818981F5
:102E50000E94AF1EC8010E94E000CE0101960E94B0
:102E6000061C2C814B816A8189810E94AF1EC8019A
:102E70000E94E000CE0101960E94101C2C814B8123
:102E80006A8189810E94AF1EC8010E94E0000E94F1
:102E9000001D8170803071F0CE0101960E94591C96
:102EA0002C814B816A8189810E94AF1E88EE93E05C
:102EB0000E94E00024960FB6F894DEBF0FBECDBF8F
:102EC0001F910F91DF91CF9108952F923F924F92D2
:102ED0005F926F927F928F929F92AF92BF92CF92AA
:102EE000DF92EF92FF920F931F930E94FF1D80E0ED
:102EF00090E021E030E0590119013C012C016C0106
:102F00004C0181E09501A101421753079601A301ED
:102F100042075307A20142075307A4014207530780
:102F200009F480E08170803009F02EC010E0812F1C
:102F300060E040E020E00E94AF1EC5010E94E0007A
:102F40001F3F09F4E9C0212F33272F5F3F4F760140
:102F5000A7014F4F5F4FB7016F4F7F4FF701EF4F03
:102F6000FF4FD901B07081E02A173B074E055F057E
:102F70006E057F05EE05FF0509F080E08170139571
:102F8000803009F0D4CF19C281E0A10122E030E005
:102F9000421753079601A30142075307A2014207B4
:102FA0005307A4014207530709F080E08170803085
:102FB00009F084C081E0A10123E030E0421753070B
:102FC0009601A30142075307A20142075307A40138
:102FD0004207530709F480E0817010E0803009F067
:102FE0002DC080E060E0412F20E00E94AF1EC501AF
:102FF0000E94E0001F3F09F48FC0212F33272F5F6D
:103000003F4F7601A7014F4F5F4FB7016F4F7F4F83
:10301000F701EF4FFF4FD901B07081E02A173B074E
:103020004E055F056E057F05EE05FF0509F080E0A2
:1030300081701395803009F0D4CFBFC1C10124E065
:1030400030E0822793279201822B932B9301A401D6
:10305000242B352B282B392BC60128173907412F54
:1030600009F040E0842F642F20E00E94AF1EC501CC
:103070000E94E0001F3F09F44FC0212F33272F5F2C
:103080003F4F7601A7014F4F5F4FB7016F4F7F4F03
:10309000F701EF4FFF4FD901B07081E02A173B07CE
:1030A0004E055F056E057F05EE05FF0509F080E022
:1030B00081701395803009F0C1CF7FC110E080E0AE
:1030C000612F40E020E00E94AF1EC5010E94E00099
:1030D0001F3F09F421C0212F33272F5F3F4F760177
:1030E000A7014F4F5F4FB7016F4F7F4FF701EF4F72
:1030F000FF4FD901B07081E02A173B074E055F05ED
:103100006E057F05EE05FF0509F080E081701395DF
:10311000803009F0D4CF51C181E09501A10142175F
:1031200053079601A30142075307A2014207530721
:10313000A4014207530709F480E08170803009F050
:1031400030C000E01FEF812F60E040E020E00E94EF
:10315000AF1EC5010E94E0000F3F09F4C8C0202F38
:1031600033272F5F3F4F7601A7014F4F5F4FB701C6
:103170006F4F7F4FF701EF4FFF4FD901B07081E0E4
:103180002A173B074E055F056E057F05EE05FF0517
:1031900009F080E081701A950395803009F0D3CF53
:1031A0000EC181E0A10122E030E0421753079601F1
:1031B000A30142075307A20142075307A401420794
:1031C000530709F080E08170803009F430C000E0DE
:1031D0001FEF80E0612F40E020E00E94AF1EC5019C
:1031E0000E94E0000F3F09F482C0202F33272F5F99
:1031F0003F4F7601A7014F4F5F4FB7016F4F7F4F92
:10320000F701EF4FFF4FD901B07081E02A173B075C
:103210004E055F056E057F05EE05FF0509F080E0B0
:1032200081701A950395803009F0D3CFC8C01FEF85
:1032300000E081E0A10123E030E04217530796014E
:10324000A30142075307A20142075307A401420703
:10325000530709F080E081708030D1F481E0A10152
:1032600024E030E0421753079601A30142075307B9
:10327000A20142075307A4014207530709F080E067
:103280008170803060E040E031F0612F412F03C059
:10329000402F409560E0862F20E00E94AF1EC501C0
:1032A0000E94E000103009F422C0202F33272F5F46
:1032B0003F4F7601A7014F4F5F4FB7016F4F7F4FD1
:1032C000F701EF4FFF4FD901B07081E02A173B079C
:1032D0004E055F056E057F05EE05FF0509F080E0F0
:1032E00081701A950395803009F0A3CF68C081E002
:1032F000A10124E030E0421753079601A3014207E1
:103300005307A20142075307A4014207530709F0DC
:1033100080E08170803009F03FC091E09601A1010A
:1033200042175307A30142075307A201420753075D
:10333000A4014207530781E00CF480E08170A101F1
:103340004F5F5F4FB3016F4F7F4FF201EF4FFF4F62
:10335000D401AF4FBF4F96011A01421753073B01EB
:10336000620773072F01E207F3074D01A207B307B6
:1033700021E03CF02170821741F08923803051F424
:10338000C0CD20E021708217C1F790E08923803002
:1033900009F4B7CD0E944E281F910F91FF90EF9036
:1033A000DF90CF90BF90AF909F908F907F906F9065
:1033B0005F904F903F902F9008950E944E280E945A
:1033C0004E28CF93DF936F927F928F929F92AF920E
:1033D000BF92CF92DF92EF92FF920F931F93CDB7E0
:1033E000DEB724970FB6F894DEBF0FBECDBF0E94A4
:1033F000FF1DCE0101960E94B81B2C814B816A8172
:10340000898103E010E0E5E0F0E0A7E3B0E07F01B0
:103410005F016D014D010E944621CE0101963C01E4
:103420000E94B81B2C814B816A81898175016401DE
:103430000E944621C3010E94B81B2C814B816A81E6
:1034400089810E944621CE0101960E94C21B2C81D7
:103450004B816A8189810E944621CE0101963C01FF
:103460000E94C21B2C814B816A8189810E94462166
:10347000C3010E94C21B2C814B816A8189810E94F9
:103480004621CE0101960E94CC1B2C814B816A8182
:1034900089810E944621CE0101963C010E94CC1BED
:1034A0002C814B816A8189810E944621C3010E943F
:1034B000CC1B2C814B816A8189810E944621CE01DF
:1034C00001960E94101C2C814B816A8189810E9487
:1034D0004621CE0101963C010E94101C2C814B819B
:1034E0006A8189810E944621C3010E94101C2C819F
:1034F0004B816A8189810E94462124960FB6F894F7
:10350000DEBF0FBECDBF1F910F91FF90EF90DF90F8
:10351000CF90BF90AF909F908F907F906F90DF91F2
:10352000CF910895CF93DF932F923F924F925F9266
:103530006F927F928F929F92AF92BF92CF92DF92C3
:10354000EF92FF920F931F93CDB7DEB726970FB67A
:10355000F894DEBF0FBECDBF0E94FF1DCE010396C3
:10356000FC013396E983FA83FC0132963F015C014A
:1035700001962C010E943F1D04971C0180E090E001
:1035800004E010E09C012F5F3F4FA0E0B0E0AD01F0
:103590004F4F5F4FBD016F4F7F4FFD01EF4FFF4F0B
:1035A000790121E04701EE14FF044A075B076A072F
:1035B0007B07EA07FB0709F420E02170203009F4BB
:1035C00001C05CC035E09302202D1124839F412D62
:1035D0001124420F440F551F440F551F440F551F10
:1035E000440F551F440F551F440F551F440F551FBF
:1035F000440F551F802D9927842B952B27E330E00E
:1036000079018E159F0508F401C0C701E81AF90A6F
:103610000E947B02682FC70167010E947D02C501DD
:103620000E94B81BA981BA812C91D3014C91D2017F
:103630006C918B8171010E94462182E390E094019C
:1036400028173907C90109F09ECF26960FB6F894BE
:10365000DEBF0FBECDBF1F910F91FF90EF90DF90A7
:10366000CF90BF90AF909F908F907F906F905F9022
:103670004F903F902F90DF91CF9108950E944E2858
:10368000CF93DF93CF92DF92EF92FF920F931F932E
:10369000CDB7DEB724970FB6F894DEBF0FBECDBF0F
:1036A0000E94FF1DCE0101960E94B81B2C814B8108
:1036B0006A81898103E010E0EAE0F0E07F016F01B8
:1036C0000E94AD24CE0101960E94B81B2C814B8133
:1036D0006A81898176010E94AD24CE0101960E9403
:1036E000C21B2C814B816A8189810E94AD24CE014D
:1036F00001960E94C21B2C814B816A8189810E94A4
:10370000AD24CE0101960E94CC1B2C814B816A8195
:1037100089810E94AD24CE0101960E94CC1B2C8190
:103720004B816A8189810E94AD24CE0101960E945D
:10373000101C2C814B816A8189810E94AD24CE01AD
:1037400001960E94101C2C814B816A8189810E9404
:10375000AD2424960FB6F894DEBF0FBECDBF1F91E7
:103760000F91FF90EF90DF90CF90DF91CF91089570
:10377000FC018FEF90E08193919380E090E0808353
:1037800091830895FC0180E09FEF8193919380E005
:1037900090E0808391830895FC0180E090E0819324
:1037A00091938FEF90E0808391830895FC018FEFD8
:1037B0009FEF8193919380E090E0808391830895BF
:1037C000FC018FEF90E08193919380839183089522
:1037D000FC0180E09FEF819391938FEF90E08083D5
:1037E00091830895FC018FEF9FE78193919380E08F
:1037F00090E0808391830895FC018FEF90E08193A6
:1038000091938FE790E0808391830895FC018FE787
:1038100090E0819391938FEF90E08083918308955E
:103820000F931F938C012091D8023091D9024091BF
:10383000DA025091DB026091DC027091DD02EFEF61
:10384000FFEFA091DE02B091DF0281E02E173F076B
:103850004E075F076E077F07AE07BF0709F080E0DE
:103860008170803031F488ED92E061E77DE10E9463
:1038700071118FEF9091E602903011F090E011C03D
:103880002091E4023091E5022170307040E050E078
:10389000241735079FEF09F490E02417350709F046
:1038A00080E0F80193838283819380831F910F913D
:1038B0000895EF92FF920F931F937C012091D802FD
:1038C0003091D9024091DA025091DB026091DC0222
:1038D0007091DD020FEF1FEFE091DE02F091DF0249
:1038E00081E0201731074007510760077107E007A3
:1038F000F10709F080E08170803031F488ED92E0CA
:1039000061E77DE10E9471118091E602803011F043
:1039100080E06BC02091E2023091E302369527955A
:103920008091E4029091E502880F991F880F991FFA
:10393000880F991F880F991F880F991F880F991F4B
:10394000880F991F880F991F880F991F880F991F3B
:10395000880F991F880F991F880F991F880F991F2B
:10396000880F991F822B932B9C01369527953695AE
:10397000279536952795369527953695279536952B
:10398000279536952795369527953695279536951B
:10399000279536952795369527953695279536950B
:1039A000279536952795959587959595879595951E
:1039B00087959595879595958795959587959595EF
:1039C00087959595879595958795959587959595DF
:1039D00087959595879595958795959587959595CF
:1039E0008795880F991F822B932BF701838301936F
:1039F00011938FEF80831F910F91FF90EF900895A7
:103A00002091D8023091D9024091DA025091DB0224
:103A10006091DC027091DD02EFEFFFEFA091DE021A
:103A2000B091DF0281E02E173F074E075F076E0758
:103A30007F07AE07BF0709F080E08170803031F466
:103A400088ED92E061E77DE10E94711180E0909144
:103A5000E602903099F42091E4023091E502217061
:103A6000307040E050E081E04417550744075507A7
:103A7000240735074407550709F480E0089520918D
:103A8000D8023091D9024091DA025091DB02609164
:103A9000DC027091DD02EFEFFFEFA091DE02B0914A
:103AA000DF0281E02E173F074E075F076E077F0793
:103AB000AE07BF0709F080E08170803031F488EDF7
:103AC00092E061E77DE10E9471118091E602803011
:103AD00029F48091E2029091E302089580E090E061
:103AE000089580E090E09093E3028093E202909347
:103AF000E1028093E0029093E5028093E40281E08A
:103B00008093E6020895AF92BF92CF92DF92FF9228
:103B10000F931F93022FA42E6B01F82E60911801B2
:103B20000E946B012FEF3FEF81E04091D80250914E
:103B3000D9026091DA027091DB02E091DC02F0912F
:103B4000DD02A091DE02B091DF0242175307620747
:103B50007307E207F307A207B30709F080E081705B
:103B6000803031F488ED92E061E77DE10E947111CF
:103B7000D092E302C092E20280E08093E6028F2DB1
:103B800099279093E1028093E002C50181709070C3
:103B900001701070000F111F000F111F000F111F77
:103BA000000F111F000F111F000F111F000F111F19
:103BB000000F111F082B192B1093E5020093E4024C
:103BC0008AE090E00E94E0008091E602803079F483
:103BD00080E090E02091E2023091E302281739075B
:103BE00031F080E060E040E020E00E94AF1E1F91D5
:103BF0000F91FF90DF90CF90BF90AF9008958F927C
:103C00009F92AF92BF92CF92DF92EF92FF920F936B
:103C10001F932091D8023091D9024091DA0250913D
:103C2000DB026091DC027091DD02EFEFFFEFA0910B
:103C3000DE02B091DF0281E02E173F074E075F07DB
:103C40006E077F07AE07BF0709F080E08170803004
:103C500031F488ED92E061E77DE10E94711180917D
:103C6000E602803009F070C0E090E202F090E302DA
:103C700080E090E05C01E816F90609F465C0009167
:103C8000E4021091E502C090E002D090E102A1E0D0
:103C9000B0E08091E602803071F031C00091E40222
:103CA0001091E502C090E002D090E1028091E6021E
:103CB000803009F024C04D018C2D60E00E94CA01C3
:103CC0008C2D60E00E94CA018C2D60E00E94CA0128
:103CD0000170107081E09501221733072207330726
:103CE000020713072207330709F080E08170803054
:103CF000D40129F48C2D60E00E94CA01D401AE15D4
:103D0000BF0509F41DC0AF5FBF4FF5019F012F4FE5
:103D10003F4FAF014F4F5F4FBF016F4F7F4F81E06C
:103D2000AA17BB072E073F074E075F076E077F07DF
:103D300009F480E08170803009F4B0CF0E944E28F1
:103D400088E190E00E94E3001F910F91FF90EF90B7
:103D5000DF90CF90BF90AF909F908F9008954F923B
:103D60005F926F927F928F929F92AF92BF92CF920B
:103D7000DF92EF92FF920F931F93922E842EF62ED6
:103D8000E82E2091D8023091D9024091DA02509168
:103D9000DB026091DC027091DD02EFEFFFEFA0919A
:103DA000DE02B091DF0281E02E173F074E075F076A
:103DB0006E077F07AE07BF0709F080E08170803093
:103DC00031F488ED92E061E77DE10E94711180910C
:103DD000E602803009F086C0A090E202B090E302D3
:103DE00000E010E0A016B10609F47CC04091E402A6
:103DF0005091E502C090E002D090E102E1E0F0E0F5
:103E00008091E602803071F049C04091E402509107
:103E1000E502C090E002D090E1028091E60280309D
:103E200009F03CC09A012070317081E00017110741
:103E300000071107200731070007110709F080E08C
:103E40003F018170417050702A01803039F08C2D13
:103E50006E2D0E94CA018C2D6F2D06C08C2D6F2DEA
:103E60000E94CA018C2D6E2D0E94CA018C2D682DD6
:103E70000E94CA0181E000171107000711074006E0
:103E8000510600071107F30109F080E081708030CE
:103E900029F48C2D692D0E94CA01F301EA15FB0556
:103EA00009F41CC0EF5FFF4F98012F4F3F4FA8014F
:103EB0004F4F5F4FB8016F4F7F4F81E0EE17FF0705
:103EC00020073107400751076007710709F480E0B8
:103ED0008170803009F499CF0E944E2888E190E0EB
:103EE0000E94E3001F910F91FF90EF90DF90CF9021
:103EF000BF90AF909F908F907F906F905F904F900A
:103F00000895CF93DF932F923F924F925F926F92DB
:103F10007F928F929F92AF92BF92CF92DF92EF9259
:103F2000FF920F931F93CDB7DEB724970FB6F89487
:103F3000DEBF0FBECDBF9E2D5801F22EE42ED62E31
:103F4000C82E2091D8023091D9024091DA025091C6
:103F5000DB026091DC027091DD02EFEFFFEFA091D8
:103F6000DE02B091DF0281E02E173F074E075F07A8
:103F70006E077F07AE07BF0709F080E081708030D1
:103F800041F4192F88ED92E061E77DE10E94711103
:103F9000912F8091E602803009F05BC18090E202AF
:103FA0009090E302E0E0F0E08E169F0609F451C124
:103FB000917090301F01AB82BC8209F4CBC0DF014D
:103FC000C401A983BA838A1B9B0BDC01AE17BF0710
:103FD00009F4B9C0CF012C018091E602803009F0CC
:103FE00045C00091E4021091E502A090E002B0907B
:103FF000E10298012070317081E0EE17FF07EE07B3
:10400000FF072E073F07EE07FF0709F080E03D019D
:10401000817001701070803039F08A2D6C2D0E94F3
:10402000CA018A2D6D2D06C08A2D6D2D0E94CA01F0
:104030008A2D6C2D0E94CA018A2D6E2D0E94CA0104
:1040400081E0F101EE17FF07EE07FF070E071F07DC
:10405000EE07FF07D30109F080E08170803031F472
:104060008A2D6F2D0E94CA01D301F101C201019670
:104070008A179B0708F4AFCF8A169B0608F436C050
:104080008091E602803009F02CC03D010091E402ED
:104090001091E502A090E002B090E1028A2D60E06C
:1040A0000E94CA018A2D60E00E94CA018A2D60E048
:1040B0000E94CA0191010170107081E0221733073C
:1040C00022073307020713072207330709F080E0AE
:1040D00081708030D30129F48A2D60E00E94CA01EA
:1040E000D30111968A169B0608F0CACF88E190E0AA
:1040F0000E94E300AB80BC80C5010E94F200F10188
:1041000089819A818816990609F4A3C08F5F9F4F11
:104110009F012F4F3F4FAF014F4F5F4FBF016F4F79
:104120007F4F8C0181E0D801001711072E073F0750
:104130004E075F076E077F0709F080E081708030CF
:1041400009F03ECF9FC0DF018091E602803009F484
:104150009CCFC7CF2F01D201AF5FBF4F9F012F4F21
:104160003F4FAF014F4F5F4FBF016F4F7F4F81E018
:10417000AA17BB072E073F074E075F076E077F078B
:1041800009F480E08170803009F07EC0A983BA8391
:10419000DF018091E602803009F045C00091E40221
:1041A0001091E502A090E002B090E1029801207029
:1041B000317081E0EE17FF07EE07FF072E073F077C
:1041C000EE07FF0709F080E03D018170017010707B
:1041D000803039F08A2D6C2D0E94CA018A2D6D2DF8
:1041E00006C08A2D6D2D0E94CA018A2D6C2D0E9459
:1041F000CA018A2D6E2D0E94CA0181E0F101EE17DD
:10420000FF07EE07FF070E071F07EE07FF07D301A3
:1042100009F080E08170803031F48A2D6F2D0E948A
:10422000CA01D301F10111964A165B0608F0B1CF1D
:1042300088E190E00E94E300AB80BC80C5010E9451
:10424000F200F101A981BA81A815B9052D0109F083
:1042500083CF24960FB6F894DEBF0FBECDBF1F915B
:104260000F91FF90EF90DF90CF90BF90AF909F9015
:104270008F907F906F905F904F903F902F90DF9145
:10428000CF9108950E944E280E944E28CF93DF932D
:104290002F923F924F925F926F927F928F929F9256
:1042A000AF92BF92CF92DF92EF92FF920F931F9344
:1042B000CDB7DEB72B970FB6F894DEBF0FBECDBFDC
:1042C000CB82DC8217012F834B87A62E8A87209111
:1042D000D8023091D9024091DA025091DB0260910C
:1042E000DC027091DD02EFEFFFEFA091DE02B091F2
:1042F000DF0281E02E173F074E075F076E077F073B
:10430000AE07BF0709F080E0088719878170803009
:1043100031F488ED92E061E77DE10E9471118091B6
:10432000E602803009F008C14090E2025090E302BA
:10433000E0E0F0E04E165F0609F4FEC0C101E8843B
:10434000F9848E0D9F1D89839A838E179F0709F428
:104350000EC181E090E0A1E08D839E836F0181E03A
:1043600090E04C019A2F91700091E4021091E502C7
:104370006090E0027090E1028091E602903009F4D2
:104380001FC0803009F064C098012070317081E056
:10439000EE17FF07EE07FF072E073F07EE07FF07A1
:1043A00009F080E0BA2E817001701070803009F43D
:1043B0002DC0862D6A850E94CA01862D6A2D2CC0CB
:1043C000803009F045C0BA2E862D60E00E94CA01F7
:1043D000862D60E00E94CA01862D60E00E94CA011D
:1043E000F6010170107081E0EE17FF07EE07FF077E
:1043F0000E071F07EE07FF0709F080E0817080308D
:10440000AB2D09F025C0862D60E01EC0862D6A2DDB
:104410000E94CA01862D6A850E94CA01862D6B857D
:104420000E94CA0181E0F601EE17FF07EE07FF07C1
:104430000E071F07EE07FF07AB2D09F080E0817024
:10444000803031F4862D6F810E94CA01AB2DF601B8
:10445000C70101977C018E179F0729F0840104157D
:10446000150571F429C08A2F817080307101840193
:1044700011F4E884F98481E0A82704151505E1F01A
:104480000F5F1F4F9F012F4F3F4FAF014F4F5F4FA8
:10449000BF016F4F7F4F81E0001711072E073F07C5
:1044A0004E075F076E077F0709F080E048018170C3
:1044B000803009F057CF59C0C70101977C018E1792
:1044C0009F0749F48A2F81708030710111F4E884CC
:1044D000F98481E0A8271A2F88E190E00E94E30088
:1044E0008B819C810E94F20089819A81AD81BE817D
:1044F000A817B907F60109F41FC0AF5FBF4F9F01AE
:104500002F4F3F4FAF014F4F5F4FBF016F4F7F4F57
:1045100081E0AD83BE83AA17BB072E073F074E0776
:104520005F076E077F0709F080E081708030A12F60
:1045300009F015CF0E944E282B960FB6F894DEBFD7
:104540000FBECDBF1F910F91FF90EF90DF90CF90E6
:10455000BF90AF909F908F907F906F905F904F90A3
:104560003F902F90DF91CF9108950E944E280E9496
:104570004E28CF93DF932F923F924F925F926F928C
:104580007F928F929F92AF92BF92CF92DF92EF92E3
:10459000FF920F931F93CDB7DEB760970FB6F894D5
:1045A000DEBF0FBECDBFEE82FF820D871E872C8738
:1045B000488BD62E8F872091D8023091D902409116
:1045C000DA025091DB026091DC027091DD02EFEFC4
:1045D000FFEFA091DE02B091DF0281E02E173F07CE
:1045E0004E075F076E077F07AE07BF0709F080E041
:1045F0008170803031F488ED92E061E77DE10E94C6
:1046000071118091E602803009F084C16090E2026D
:104610007090E302A0E0B0E06A167B0609F47AC16C
:104620008D859E856816790608F474C193018D8581
:104630009E85281B390B2A833B83C90101968A1763
:104640009B0709F467C19C01369527952A873B870C
:104650008C839D838C2D817089838C819D812D011C
:104660004816590608F071C1F201EF5FFF4F9D0136
:104670002F4F3F4FAD014F4F5F4FBD016F4F7F4FEA
:1046800081E0E887F987EE17FF072A073B074A070B
:104690005B076A077B0709F480E08170803009F0CE
:1046A00056C18981803051F02A803B802414350422
:1046B00079F05101A418B508120108C02A803B8086
:1046C000241835084A165B0619F0520130E003C081
:1046D00031E0AD84BE84CD018C010F5F1F4FAD0171
:1046E0004F4F5F4FBD016F4F7F4FFD01EF4FFF4FAA
:1046F000019621E0081719074A075B076A077B073D
:10470000EA07FB0709F420E078012170203009F066
:104710001AC1932F91700091E4021091E5028090EC
:10472000E0029090E1028091E602903009F41FC00F
:10473000803009F067C0C32E98012070317081E08D
:10474000AA17BB07AA07BB072A073B07AA07BB078D
:1047500009F080E0817001701070803009F42EC083
:10476000882D6F850E94CA01882D6D2D2DC0803047
:1047700009F048C0C32E882D60E00E94CA01882D30
:1047800060E00E94CA01882D60E00E94CA01A0E09A
:10479000B0E00170107081E0AA17BB07AA07BB0741
:1047A0000A071B07AA07BB0709F080E08170803069
:1047B0003C2D09F027C0882D60E01FC0882D6D2D8D
:1047C0000E94CA01882D6F850E94CA01882D6889C0
:1047D0000E94CA0181E0A0E0B0E0AA17BB07AA07C7
:1047E000BB070A071B07AA07BB073C2D09F080E09F
:1047F0008170803039F4882D6C850E94CA013C2D6F
:10480000A0E0B0E0C50101978A179B0719F05C0191
:1048100087010AC0832F817080305101870111F414
:10482000AD84BE8481E0382706151705C80109F05C
:1048300054CF852D88230AF48CC02A853B85241902
:104840003509832F882312F089011EC081E02A17C1
:104850003B0791E00CF490E0891791E009F490E0B7
:104860008D01021B130B0A171B0721E00CF446C035
:10487000821709F447C098239170903009F048C01E
:10488000812F88230AF467C088E190E00E94E3004A
:104890008A859B85801B910B96958795EE81FF817C
:1048A0008F02202D11248E9F302D412D1124420F77
:1048B0009E021124602D640F660F771F660F771F0D
:1048C000660F771F660F771F660F771F660F771FBC
:1048D000660F771F660F771F832F9927862B972BDD
:1048E0008E0F9F1F0E94F2008C819D814884598405
:1048F00048165906A0E0B0E069F0B2CE20E0821779
:1049000009F0B9CF80E098239170903009F4B8CFC6
:104910000E944E2860960FB6F894DEBF0FBECDBF42
:104920001F910F91FF90EF90DF90CF90BF90AF90CD
:104930009F908F907F906F905F904F903F902F90BF
:10494000DF91CF9108950E944E280E944E280E9428
:104950004E280E944E280E944E289F92AF92BF92EE
:10496000CF92DF92D22EB42EA62E982E2091D8026E
:104970003091D9024091DA025091DB026091DC0261
:104980007091DD02EFEFFFEFA091DE02B091DF0248
:1049900081E02E173F074E075F076E077F07AE07C0
:1049A000BF0709F080E08170803031F488ED92E03B
:1049B00061E77DE10E9471118091E6028030E1F4AF
:1049C0008091E2029091E30220E030E082179307A9
:1049D00099F08017910780F090E0892D6A2D4B2D7A
:1049E0002D2DC92E0E94B92291E0892D6A2D4B2DC3
:1049F0002D2DC92E0E94B922DF90CF90BF90AF908D
:104A00009F9008951092B00082E08093B100EEE68E
:104A1000F0E08081816080830895A1E21A2EAA1BB4
:104A2000BB1BFD010DC0AA1FBB1FEE1FFF1FA2175E
:104A3000B307E407F50720F0A21BB30BE40BF50B5B
:104A4000661F771F881F991F1A9469F760957095E4
:104A5000809590959B01AC01BD01CF010895A29F67
:104A6000B001B39FC001A39F700D811D1124911D42
:104A7000B29F700D811D1124911D08952F923F92B8
:104A80004F925F926F927F928F929F92AF92BF925E
:104A9000CF92DF92EF92FF920F931F93CF93DF930A
:104AA000CDB7DEB7CA1BDB0B0FB6F894DEBF0FBE67
:104AB000CDBF09942A88398848885F846E847D84B4
:104AC0008C849B84AA84B984C884DF80EE80FD80B6
:104AD0000C811B81AA81B981CE0FD11D0FB6F8942C
:104AE000DEBF0FBECDBFED010895EE0FFF1F059095
:104AF000F491E02D0994D9D008F481E008950CD008
:104B00000FC107D140F0FED030F021F45F3F19F023
:104B1000F0C0511139C1F3C014D198F39923C9F3EE
:104B20005523B1F3951B550BBB27AA2762177307B3
:104B3000840738F09F5F5F4F220F331F441FAA1F67
:104B4000A9F333D00E2E3AF0E0E830D09150504027
:104B5000E695001CCAF729D0FE2F27D0660F771FD5
:104B6000881FBB1F261737074807AB07B0E809F0B7
:104B7000BB0B802DBF01FF2793585F4F2AF09E3F4C
:104B8000510568F0B6C000C15F3FECF3983EDCF31E
:104B9000869577956795B795F7959F5FC9F7880FC5
:104BA000911D9695879597F90895E1E0660F771F17
:104BB000881FBB1F621773078407BA0720F0621BA8
:104BC000730B840BBA0BEE1F88F7E095089504D0A1
:104BD0006894B111D9C00895BCD088F09F5790F067
:104BE000B92F9927B751A0F0D1F0660F771F881F12
:104BF000991F1AF0BA95C9F712C0B13081F0C3D02D
:104C0000B1E00895C0C0672F782F8827B85F39F0CA
:104C1000B93FCCF3869577956795B395D9F73EF470
:104C200090958095709561957F4F8F4F9F4F089518
:104C3000E89409C097FB3EF4909580957095619536
:104C40007F4F8F4F9F4F9923A9F0F92F96E9BB27EC
:104C50009395F695879577956795B795F111F8CF68
:104C6000FAF4BB0F11F460FF1BC06F5F7F4F8F4FD3
:104C70009F4F16C0882311F096E911C0772321F0C9
:104C80009EE8872F762F05C0662371F096E8862F61
:104C900070E060E02AF09A95660F771F881FDAF7B8
:104CA000880F9695879597F90895990F0008550FE5
:104CB000AA0BE0E8FEEF16161706E807F907C0F0A2
:104CC00012161306E407F50798F0621B730B840BAA
:104CD000950B39F40A2661F0232B242B252B21F484
:104CE00008950A2609F4A140A6958FEF811D811D24
:104CF000089597F99F6780E870E060E008959FEF5E
:104D000080EC089500240A94161617061806090662
:104D1000089500240A941216130614060506089531
:104D2000092E0394000C11F4882352F0BB0F40F4B9
:104D3000BF2B11F460FF04C06F5F7F4F8F4F9F4FF9
:104D4000089557FD9058440F551F59F05F3F71F07B
:104D50004795880F97FB991F61F09F3F79F08795E2
:104D60000895121613061406551FF2CF4695F1DF6B
:104D700008C0161617061806991FF1CF86957105FB
:104D8000610508940895E894BB2766277727CB012F
:104D900097F90895CF93DF938230910510F482E064
:104DA00090E0E0916903F0916A0320E030E0A0E038
:104DB000B0E0309739F14081518148175907B8F078
:104DC0004817590771F482819381109729F013963F
:104DD0009C938E9312972CC090936A0380936903DF
:104DE00027C02115310531F04217530718F0A901EA
:104DF000DB0101C0EF019A01BD01DF010280F381F7
:104E0000E02DD7CF21153105F9F0281B390B2430BF
:104E1000310580F48A819B816115710521F0FB01C8
:104E20009383828304C090936A0380936903FE0195
:104E3000329644C0FE01E20FF31F819391932250FA
:104E40003109398328833AC0209167033091680380
:104E5000232B41F420910B0130910C013093680316
:104E6000209367032091090130910A012115310532
:104E700041F42DB73EB740910D0150910E01241B16
:104E8000350BE0916703F0916803E217F307A0F494
:104E90002E1B3F0B2817390778F0AC014E5F5F4F90
:104EA0002417350748F04E0F5F1F50936803409357
:104EB00067038193919302C0E0E0F0E0CF01DF91BE
:104EC000CF910895CF93DF93009709F487C0FC0139
:104ED000329713821282C0916903D0916A0320979E
:104EE00081F420813181280F391F809167039091CF
:104EF00068038217930779F5F0936803E0936703DB
:104F00006DC0DE0120E030E0AE17BF0750F412960E
:104F10004D915C9113979D014115510509F1DA01FD
:104F2000F3CFB383A28340815181840F951F8A17E9
:104F30009B0771F48D919C911197840F951F029698
:104F40009183808312968D919C9113979383828392
:104F50002115310529F4F0936A03E09369033EC0FB
:104F6000D9011396FC93EE9312974D915D91A40F86
:104F7000B51FEA17FB0779F480819181840F951F93
:104F80000296D90111969C938E93828193811396F8
:104F90009C938E931297E0E0F0E08A819B810097CA
:104FA00019F0FE01EC01F9CFCE010296288139817A
:104FB000820F931F209167033091680328173907E8
:104FC00069F4309729F410926A031092690302C0C1
:104FD00013821282D0936803C0936703DF91CF914D
:104FE00008958F929F92AF92BF92CF92DF92EF92ED
:104FF000FF92CF93DF93EC01688179818A819B8155
:10500000611571058105910521F464E279ED8BE567
:1050100097E02DE133EF41E050E00E94012A490181
:105020005A019B01AC01A7EAB1E40E94202A6B015E
:105030007C01ACEEB4EFA50194010E942E2AC60EAD
:10504000D71EE81EF91EF7FE06C081E0C81AD10877
:10505000E10880E8F80AC882D982EA82FB82C701A7
:10506000B6019F77DF91CF91FF90EF90DF90CF90C7
:10507000BF90AF909F908F9008950E94F127089560
:105080008FE091E00E94F127089560930F017093E3
:1050900010018093110190931201089581E090E036
:1050A000F8940C94332A283008F027E03327DA01EB
:1050B000990F311D87FD916000966105710539F4E6
:1050C00032602E5F3D9330E32A95E1F708959F3FCC
:1050D00030F080387105610509F03C5F3C5F3D931D
:1050E000913008F08068911DDF93CF931F930F9349
:1050F000FF92EF92192F987F9695E92F96959695A6
:10510000E90FFF27E653FF4F99273327EE24FF24AB
:10511000A701E70105900894079428F4360FE71ECD
:10512000F81E491F511D660F771F881F991F06948F
:10513000A1F70590079428F4E70EF81E491F561FA3
:10514000C11D770F881F991F661F0694A1F7059050
:10515000079428F4F80E491F561FC71FD11D880F4A
:10516000991F661F771F0694A1F70590079420F4F6
:10517000490F561FC71FD81F990F661F771F881F1B
:105180000694A9F784911095177041F0D695C795AC
:1051900057954795F794E7941A95C1F7E0E7F0E043
:1051A00068941590159135916591959105907FE2E0
:1051B0007395E118F10A430B560BC90BD009C0F7E0
:1051C000E10CF11E431F561FC91FD01D7EF4703322
:1051D00011F48A95E6CFE894015030F0080F0AF4F4
:1051E0000027021708F4202F2395022F7A3328F086
:1051F00079E37D932A95E9F710C07D932A9589F686
:10520000069497956795379517951794E118F10AC5
:10521000430B560BC90BD00998F023957E917395DB
:105220007A3308F070E37C932013B8F77E917061B5
:105230007D9330F0839571E37D9370E32A95E1F7D8
:105240001124EF90FF900F911F91CF91DF9199273B
:1052500087FD90950895FC01059061507040011004
:10526000D8F7809590958E0F9F1F0895FC0161508F
:10527000704001900110D8F7809590958E0F9F1F78
:1052800008950F931F93CF93DF93182F092FEB01EE
:105290008B8181FD03C08FEF9FEF20C082FF10C084
:1052A0004E815F812C813D81421753077CF4E88158
:1052B000F9819F012F5F3F4F39832883108306C0F8
:1052C000E885F985812F0995892B29F72E813F8162
:1052D0002F5F3F4F3F832E83812F902FDF91CF9100
:1052E0001F910F910895AEE0B0E0E9E7F9E20C9468
:1052F0004C250D891E898F89988D26E02C831A8371
:10530000098397FF02C080E090E801979E838D8318
:10531000AE01455E5F4F698D7A8DCE0101960E9488
:1053200080124D815E8157FD0AC02F81388542175A
:1053300053070CF49A01F801E20FF31F10822E9626
:10534000E4E00C946825FA01AA27283051F12031B5
:1053500081F1E8946F936E7F6E5F7F4F8F4F9F4F09
:10536000AF4FB1E03ED0B4E03CD0670F781F891F4B
:105370009A1FA11D680F791F8A1F911DA11D6A0F19
:10538000711D811D911DA11D20D009F468943F91CC
:105390002AE0269F11243019305D3193DEF6CF01CB
:1053A0000895462F4770405D4193B3E00FD0C9F791
:1053B000F6CF462F4F70405D4A3318F0495D31FDFE
:1053C0004052419302D0A9F7EACFB4E0A695979551
:1053D000879577956795BA95C9F700976105710527
:1053E00008959B01AC010A2E069457954795379571
:1053F0002795BA95C9F7620F731F841F951FA01DCB
:105400000895052E97FB1EF400940E94182A57FD5C
:1054100007D00E940D2507FC03D04EF40C94182AE7
:1054200050954095309521953F4F4F4F5F4F0895D0
:1054300090958095709561957F4F8F4F9F4F089500
:105440000E942F25A59F900DB49F900DA49F800DC5
:10545000911D11240895B7FF0C94202A0E94202A40
:0A546000821B930B0895F894FFCF10
:10546A000000803F210100040700006B03200001B7
:10547A000000000302010000010001030201000113
:10548A000001256C6400252E326600252E2A66004E
:10549A0073657420627974652C2073657474696EFF
:1054AA00672063720077616974696E6720666F723C
:1054BA00205457490054574920636F6D706C6574C6
:1054CA00650067657474696E6720726567697374CD
:1054DA0065722076616C756520666F723A00676F37
:1054EA00742072656769737465722076616C75657C
:0E54FA003A0073656E64696E672E2E2E0000F8
:00000001FF
