:100000000C94C6000C94CB020C94F4020C94EE00F9
:100010000C94EE000C94EE000C94EE000C94EE00A8
:100020000C94EE000C947D060C94EE000C942304CA
:100030000C94EE000C94FF040C94D3030C94EE008B
:100040000C94EE000C94EE000C9494060C94EE00CC
:100050000C94EE000C94DA0D0C94EE000C94EE006F
:100060000C94A6090C94EE006E616E00696E660039
:100070004368616E67656420736572766F20616E98
:10008000676C6520746F3A00537461727465640024
:1000900000407A10F35A00A0724E18090010A5D43F
:1000A000E80000E87648170000E40B54020000CA9C
:1000B0009A3B000000E1F5050000809698000000E2
:1000C00040420F000000A086010000001027000041
:1000D0000000E803000000006400000000000A00C7
:1000E000000000000100000000002C76D888DC67CA
:1000F0004F0823DFC1DFAE59E1B1B796E5E3E45322
:10010000C63AE651997696E8E6C28426EB898C9B3E
:1001100062ED407C6FFCEFBC9C9F40F2BAA56FA5DE
:10012000F490055A2AF75C936B6CF9676DC11BFC60
:10013000E0E40D47FEF520E6B500D0ED902E03007B
:10014000943577050080841E080000204E0A0000C8
:1001500000C80C333333330F986E12831141EF8D87
:100160002114893BE65516CFFEE6DB18D1844B38C7
:100170001BF77C1D901DA4BBE424203284725E22F8
:100180008100C9F124ECA1E53D276C1411241FBEA8
:10019000CFEFD8E0DEBFCDBF11E0A0E0B1E0E6EEEA
:1001A000F0E302C005900D92AC39B107D9F723E016
:1001B000ACE9B1E001C01D92A635B207E1F711E04C
:1001C000CCE8D1E004C02297FE010E94E114CA38B5
:1001D000D107C9F70E94DB130C9471180C9400002E
:1001E0000E94950308950E94A50308950E94950317
:1001F00008950E94A50308950E94950308950E9402
:10020000A50308950E94950308950E94A5030895EB
:100210009B0160E040E00E945A0408959B0161E068
:1002200040E00E945A0408959B0160E041E00E9472
:100230005A0408950E94D70408950E94380508952D
:100240000E949B0508950E94BE0308950E94C0036A
:1002500008950E94CD0308950E94D10308950E943D
:10026000FC0308950E94160408950E94AC050895A9
:100270000E94F70508950E94FC0508950E94FF055D
:1002800008950E9402060895BC0188EE93E00E9442
:10029000C40508950E94070608950E942306089544
:1002A0000E947406089541E00E945D06089540E0B2
:1002B0000E945D0608950E94B90308950E94660396
:1002C00008950E946A0308950E94610308950F93A0
:1002D0001F938C010E946303F801938382836193CF
:1002E00070831F910F9108950E94DD010895617040
:1002F0000E940E02089561700E94500208950E94AB
:10030000D40B08950E94F80C08950E942B0D0895B7
:100310008AE591E0089561EE7AE784E99FE3089524
:100320000E947F0D08950E94550D08950E94400E71
:1003300008950E94860E08958AE591E0089561EE81
:100340007AE784E99FE308950E94C30E08950E940E
:100350002F0F08950E941D0308950E9437030895EA
:100360000E943D0308950E945B0308950E94B3021A
:1003700008950E94B90208950E94B50208950E944E
:10038000BB0208950E94B70208950E94BD0208951D
:100390000E94BF0208950E94C50208950E94C102F2
:1003A00008950E94C70208950E94C30208950E9402
:1003B000C90208950E946C0F0895282F30E028305C
:1003C0003105DCF02E303105A4F02531310524F55E
:1003D00086B12E50310941E050E002C0440F551F54
:1003E0002A95E2F790E04823592381E0452BA1F0BC
:1003F000089583B128503109EECF99B121E030E062
:1004000002C0220F331F8A95E2F7892F90E028233C
:10041000392381E0232B61F780E00895282F30E015
:10042000283031056CF49BB121E030E0082E01C08A
:10043000220F0A94EAF7662341F1922B9BB90895A3
:100440002E3031057CF445B12850310981E090E02F
:10045000022E01C0880F0A94EAF76623D1F0482BD8
:1004600045B90895253131057CF448B12E50310944
:1004700081E090E0022E01C0880F0A94EAF7611132
:100480000CC08095842388B90895209529232BB921
:1004900008958095842385B90895482B48B9089517
:1004A000282F30E06623B1F028303105B4F12E302A
:1004B0003105F4F1253131051CF547B12E503109D4
:1004C00081E090E0022E01C0880F0A94EAF7482BE1
:1004D00047B9089528303105A4F02E303105ACF12C
:1004E000253131056CF447B12E50310981E090E09F
:1004F000022E01C0880F0A94EAF78095842387B9F9
:1005000008959AB121E030E0082E01C0220F0A942C
:10051000EAF7209529232AB908959AB121E030E01D
:10052000082E01C0220F0A94EAF7922B9AB9089577
:1005300044B12850310981E090E0022E01C0880FBB
:100540000A94EAF7482B44B9089544B12850310978
:1005500081E090E0022E01C0880F0A94EAF78095AE
:10056000842384B9089585B1089588B108958BB125
:10057000089585B9089588B908958BB9089584B10F
:10058000089587B108958AB1089584B9089587B907
:1005900008958AB908951F920F920FB60F921124F1
:1005A0002F933F934F935F936F937F938F939F937B
:1005B000AF93BF93EF93FF93E0919E01F0919F0162
:1005C000309709F00995FF91EF91BF91AF919F91FD
:1005D0008F917F916F915F914F913F912F910F90EC
:1005E0000FBE0F901F9018951F920F920FB60F928B
:1005F00011242F933F934F935F936F937F938F9328
:100600009F93AF93BF93EF93FF93E0919C01F09181
:100610009D01309709F00995FF91EF91BF91AF913E
:100620009F918F917F916F915F914F913F912F910A
:100630000F900FBE0F901F901895CF93C82F7093F7
:100640009F0160939E018AE090E00E949503F894D8
:1006500081E08CBBE898E9E6F0E090818C2F837014
:100660009C7F892B8083E89A7894CF91089510928B
:100670009F0110929E01E8980895CF93C82F709320
:100680009D0160939C018AE090E00E949503F8949C
:1006900082E08CBBE998E9E6F0E0208190818C2F24
:1006A0008370880F880F937F892B82238083E99A38
:1006B0007894CF91089510929D0110929C01E99831
:1006C00008950C9483160E94831608950E94831641
:1006D000CB010895BC0180E090E00C9488169F93B4
:1006E0008F937F936F9380E291E09F938F931F92FC
:1006F0008FE08F9382EA91E09F938F930E94B117CE
:100700008DB79EB70A960FB6F8949EBF0FBE8DBFE9
:1007100041E062EA71E08AE090E00C94310741E048
:10072000BC0182E390E00C943107009769F020E06F
:1007300030E0EFE9FFE03197F1F700C000002F5FF4
:100740003F4F28173907A9F70895969587959695ED
:10075000879596958795009759F020E030E04AE21A
:100760004A95F1F700C02F5F3F4F28173907B9F7B7
:1007700008958091A0019091A101089516BC08955B
:10078000833041F0823009F0089586E085BD14BCC5
:1007900016BC089587E085BDFACF14BC15BC16BC05
:1007A000089586B508951F920F920FB60F921124E7
:1007B0002F933F934F935F936F937F938F939F9369
:1007C000AF93BF93EF93FF93E0913802F09139021A
:1007D000309709F00995FF91EF91BF91AF919F91EB
:1007E0008F917F916F915F914F913F912F910F90DA
:1007F0000FBE0F901F901895509339024093380206
:10080000833089F0823051F067BD82E084BD8091F1
:100810006E00826080936E007894089586E085BDB6
:1008200014BC16BCF1CF87E085BDFACF1092390217
:1008300010923802EEE6F0E080818D7F808314BC58
:1008400015BC16BC08951F920F920FB60F9211247B
:100850002F933F934F935F936F937F938F939F93C8
:10086000AF93BF93EF93FF93E0913602F09137027D
:10087000309791F00995FF91EF91BF91AF919F91C2
:100880008F917F916F915F914F913F912F910F9039
:100890000FBE0F901F9018958091340290913502F1
:1008A000892B49F35B9AE0913402F0913502099566
:1008B0005B98E1CF662301F1309335022093340237
:1008C000109280001092850010928400442301F160
:1008D00029E02093810048EC489F9001499F300D0A
:1008E0001124309389002093880080916F008260EA
:1008F00080936F00789408953093370220933602E6
:100900001092800010928500109284004111E0CF77
:100910009C0121503109273441E03407A0F42AE03A
:100920002093810048EC489F9001499F300D11248D
:10093000309389002093880080916F0082608093BB
:100940006F00789408952F3F334AD0F42DE0209320
:1009500081009C01A8ECB0E00E94991437E09695C4
:100960008795779567953A95D1F77093890060934D
:10097000880080916F00826080936F007894089562
:100980001092370210923602109235021092340201
:1009900010926F008FEF86BB81E08093800083E030
:1009A0008093810010928500109284000895109227
:1009B00037021092360210923502109234021092D1
:1009C0006F008FEF86BB81E08093800083E080938F
:1009D00081001092850010928400089510923302D5
:1009E0001092320210926F008FEF86BB109280003F
:1009F00010928100109285001092840008951F9239
:100A00000F920FB60F9211242F933F934F935F9342
:100A10006F937F938F939F93AF93BF93EF93FF93C6
:100A2000E0913202F0913302309789F009951092EB
:100A300033021092320210926F008FEF86BB109239
:100A40008000109281001092850010928400FF9126
:100A5000EF91BF91AF919F918F917F916F915F9136
:100A60004F913F912F910F900FBE0F901F901895AF
:100A70000F931F932091320230913302232B19F0F0
:100A80001F910F91089510926F002FEF26BB1092C7
:100A900080001092810010928500109284008B01DA
:100AA0009C01000F111F221F331F000F111F221F57
:100AB000331F000F111F221F331F000F111F221F92
:100AC000331F01151105E1E02E07310510F1011565
:100AD0001105210584E0380798F6509333024093BE
:100AE00032024AE036952795179507954A95D1F732
:100AF000119501951109109385000093840085E0FC
:100B00008093810081E080936F0078941F910F9112
:100B10000895509333024093320240EF4603900110
:100B2000479F300D1124309385002093840081E08D
:100B300080938100E7CF109233021092320210921C
:100B40006F008FEF86BB1092800010928100109290
:100B50008500109284000895A091B101AF3791F003
:100B6000E1E0EA0FE093B101BB27A7FDB095AE54D9
:100B7000BE4F8C93FF27E7FDF095EE54FE4F108299
:100B800081E0089580E008951092B1010097E9F0A6
:100B9000FB015491552329F140E006C0FB01E20F0F
:100BA000F31F54915523A1F0A42FBB27A7FDB095A7
:100BB000AE54BE4F5C934F5F242F332727FD3095F3
:100BC0002817390758F34093B10182EB91E008955B
:100BD0004093B101F901EE54FE4F108282EB91E097
:100BE0000895E0E0F0E0F7CF8AE991E008951092EF
:100BF000B1011092B201089582EB91E008958091C5
:100C0000B10108959091B10180E8891B08959F93E7
:100C10008F937F936F9380E291E09F938F931F92C6
:100C20008FE08F9382EA91E09F938F930E94B11798
:100C30008DB79EB70A960FB6F8949EBF0FBE8DBFB4
:100C400082EA91E008959F938F937F936F9384E25C
:100C500091E09F938F931F928FE08F9382EA91E0B0
:100C60009F938F930E94B1178DB79EB70A960FB6C8
:100C7000F8949EBF0FBE8DBF82EA91E008959F93C6
:100C80008F937F936F931F924F9389E291E09F938D
:100C90008F931F928FE08F9382EA91E09F938F93BF
:100CA0000E94B1178DB79EB70C960FB6F8949EBFF1
:100CB0000FBE8DBF82EA91E0089541110AC080798C
:100CC0009170F999FECF92BD81BD60BDFA9AF99AF3
:100CD0000895F999FECF8079917092BD81BDF89AFF
:100CE00020B56213EECF0895F999FECF8079917007
:100CF00092BD81BDF89A80B508951F920F920FB6EC
:100D00000F9211248F939F938091A0019091A10144
:100D100001969093A1018093A0019F918F910F90D4
:100D20000FBE0F901F9018951F920F920FB60F9243
:100D300011242F938F939F93EF93FF9380914402FD
:100D400081111EC0E091460281E08E0F8093460221
:100D50009091C600FF27E7FDF095E85BFD4F90837B
:100D6000992787FD90958F77907897FD13C0809392
:100D7000460291E020914702281390E090934402AC
:100D8000FF91EF919F918F912F910F900FBE0F9038
:100D90001F901895019780689F6F01968093460277
:100DA00091E0209147022813E8CFE8CF9C0140E072
:100DB00050E0220F331F441F551F220F331F441FC3
:100DC000551F220F331F441F551F220F331F441F6F
:100DD000551F60E074E284EF90E00E947714215088
:100DE000310941095109BB2757FDBA95A52F942F09
:100DF000832F8093C5002093C400E2ECF0E0808153
:100E000086608083E1ECF0E080818869808378945B
:100E100008959091C00095FFFCCF8093C60008957F
:100E20000097A1F0FB013491332381F03196860FB6
:100E3000971F2091C00025FFFCCF3093C600E81714
:100E4000F90721F0349131963111F3CF442341F069
:100E50008091C00085FFFCCF8AE08093C600089592
:100E60000895009799F0FB013081332379F0319692
:100E7000860F971F2091C00025FFFCCF3093C6003E
:100E8000E817F90719F031913111F4CF442341F0FB
:100E90008091C00085FFFCCF8AE08093C600089552
:100EA00008959091470280914602981711F081E0D1
:100EB0000895809144020895209144029091460241
:100EC00080914702981791F09FB7F894E0914702FC
:100ED00081E08E0F80934702FF27E7FDF095E85BE6
:100EE000FD4F8081109244029FBF08952111ECCFE5
:100EF000FFCFFF920F931F93CF93DF931F92CDB736
:100F0000DEB7182FF62E00911D01602F8BE049836C
:100F10000E945002602F8DE00E945002602F8AE0F4
:100F20000E945002812F83708065498190E2499F21
:100F3000A0011124842B6F2D6370660F660F682B40
:100F40006CBD0F90DF91CF911F910F91FF9008958D
:100F5000811104C08DB58E7F8DBD08958DB58160E2
:100F60008DBD08958EBD0DB407FEFDCF8EB50895DD
:100F70000097D1F0AC0120E030E01EBC0DB407FEBC
:100F8000FDCF7EB520383105D4F02F5F3F4F2817B5
:100F9000390799F7662329F0203831054CF0109273
:100FA000550386ED92E008956623D9F340E050E0C2
:100FB000FA01EA52FD4F108286ED92E00895F901A0
:100FC000EA52FD4F7083E1CF0F93009749F1A0E003
:100FD000B0E050E0E0E0F0E0442301F1A60FB71FDD
:100FE0005C9151111BC021110EC030E03EBD0DB40B
:100FF00007FEFDCF3EB5E038F105ECF03196DF019C
:10100000E817F90749F7002329F0E038F10564F003
:101010001092550386ED92E00F910895352FE6CF9B
:101020000023C1F3E0E0F0E0EA52FD4F108286EDCC
:1010300092E00F910895DF01AA52BD4F3C93DECF9D
:1010400063706093B9008093B80084E08093BC0023
:10105000411101C0089561E082E10E940E0261E049
:1010600083E10C940E0284EA8093BC008091BC0062
:1010700087FFFCCF9091B900987F81E0983009F00C
:1010800080E0089584E98093BC0008958093BB00BC
:1010900084E88093BC008091BC0087FFFCCF9091D6
:1010A000B900987F81E0983209F080E008958823A4
:1010B00051F084EC8093BC008091BC0087FFFCCF92
:1010C0008091BB00089584E88093BC00F5CF8091A7
:1010D000B900089594EA9093BC009091BC0097FFEA
:1010E000FCCF9091B900880F8F5F8093BB0084E89C
:1010F0008093BC008091BC0087FFFCCF8091B90039
:1011000084E88093BC008091BC0087FFFCCF809175
:10111000BB0094E99093BC00089594EA9093BC00BE
:101120009091BC0097FFFCCF9091B900880F8F5F22
:101130008093BB0084E88093BC008091BC0087FF53
:10114000FCCF8091B900262F30E021153105E1F068
:10115000E6EDF2E080E090E054E864EC019682175E
:101160009307C4F480389105A9F06093BC004091C6
:10117000BC0047FFFCCF4091BB004193821793070F
:1011800019F08038910551F784E98093BC0086ED11
:1011900092E008955093BC00EACF94EA9093BC008B
:1011A0009091BC0097FFFCCF9091B90090E0880F20
:1011B000991F8093BB0084E88093BC008091BC00A1
:1011C00087FFFCCF8091B9006093BB0084E88093D7
:1011D000BC008091BC0087FFFCCF8091B90084E9FE
:1011E0008093BC00089594EA9093BC009091BC0059
:1011F00097FFFCCF9091B90090E0880F991F8093E2
:10120000BB0084E88093BC008091BC0087FFFCCFCA
:101210008091B90061157105C1F0FA0180818823C0
:10122000A1F03196640F751F94E88093BB009093F2
:10123000BC008091BC0087FFFCCF8091B900E6170D
:10124000F70719F081918111F0CF84E98093BC00F8
:1012500008950F931F93CF93DF931F92CDB7DEB7FF
:101260008B0194EA9093BC009091BC0097FFFCCF57
:101270009091B90090E0880F991F8093BB0084E89B
:101280008093BC008091BC0087FFFCCF8091B900A7
:1012900068EE73E0C80149830E9474174981009782
:1012A000C9F0F80124912223A9F03196800F911FF3
:1012B00034E82093BB003093BC002091BC0027FF92
:1012C000FCCF2091B900E817F90721F0249131965D
:1012D0002111EFCF442361F08AE08093BB0084E8C2
:1012E0008093BC008091BC0087FFFCCF8091B90047
:1012F00084E98093BC000F90DF91CF911F910F91F3
:101300000895CF93DF931F92CDB7DEB78093BB00D4
:101310008EE291E069830E948F036981662391F0D8
:1013200084EC8093BC0083E491E00E948F03809161
:10133000BC0087FFFCCF83E591E00F90DF91CF9158
:101340000C948F0384E88093BC00EDCF1F920F9222
:101350000FB60F921124AF92BF92CF92DF92EF920D
:10136000FF920F931F932F933F934F935F936F932E
:101370007F938F939F93AF93BF93EF93FF93CF93FD
:10138000DF931F92CDB7DEB78091B900887F80369A
:1013900039F18091B900887F883A09F44BC0809177
:1013A000BC00856C8093BC000F90DF91CF91FF91C2
:1013B000EF91BF91AF919F918F917F916F915F91CD
:1013C0004F913F912F911F910F91FF90EF90DF90E0
:1013D000CF90BF90AF900F900FBE0F901F901895B9
:1013E000E6EDF2E060E070E024EC2093BC00809138
:1013F000BC0087FFFCCF9091BB008091B900887F33
:10140000803829F08091B900887F883831F4919331
:101410006F5F7F4F6038710541F7E0914002F091B6
:101420004102309709F494C086ED92E0099510923C
:101430004502B5CFE0913E02F0913F023097D9F1DD
:101440001982CE01019609957C01C980CC2009F44E
:10145000A6CFD12CA4E8AA2EB4ECBB2E0D2D10E003
:10146000F701E00FF11F80818093BB008EE291E0D5
:101470000E948F032C2D30E02150310902171307F1
:101480000CF063C0B092BC0083E491E00E948F0333
:101490008091BC0087FFFCCF83E591E00E948F0321
:1014A0008091B900887F883B09F079CFD394C980B7
:1014B000DC14A0F274CF80913A0290913B02892B08
:1014C00009F46DCF80914502882309F468CF80E646
:1014D00091E00E948F036091450270E080E090E00F
:1014E0000E946F03E0913A02F0913B028091450225
:1014F0000995182F8CE791E00E948F03612F70E00F
:1015000080E090E00E946F0380E991E00E948F03E9
:101510001093BB008EE291E00E948F0384E88093D9
:10152000BC0083E491E00E948F038091BC0087FFA0
:10153000FCCF83E591E00E948F03109245028091D9
:10154000BC00856C8093BC002FCFA092BC009CCFC8
:10155000E0913C02F0913D02309759F06230710504
:1015600044F08091D602809345026091D70209959C
:1015700016CF80913A0290913B02892B09F40FCF4C
:10158000672B09F40CCF8091D6028093450207CFD8
:10159000CF93C82F662341F061E082E10E940E02E2
:1015A00061E083E10E940E02CC0FC093BA0084E098
:1015B0008093BC0085EC8093BC007894CF91089513
:1015C0009093430280934202089590934102809346
:1015D0004002089590933F0280933E0208959093B5
:1015E0003D0280933C02089590933B0280933A021F
:1015F0000895ECEBF0E080818E7F808310924302AF
:1016000010924202109241021092400210923F0248
:1016100010923E0210923D0210923C0210923B0248
:1016200010923A0208958091BC00881F8827881F75
:1016300008958093BB0084E88093BC008091BC0037
:1016400087FFFCCF8091B9008091BC00856C8093AE
:10165000BC00089584EC8093BC008091BC0087FF9F
:10166000FCCF8091BB009091BC00956C9093BC0026
:101670000895282F30E021153105E1F0E6EDF2E084
:1016800080E090E054E864EC019682179307ACF494
:101690008038910591F06093BC004091BC0047FFF9
:1016A000FCCF4091BB0041938217930719F080381B
:1016B000910551F786ED92E008955093BC00EDCF6F
:1016C0000097C1F0FB0120812223A1F03196860F03
:1016D000971F34E82093BB003093BC002091BC00DE
:1016E00027FFFCCF2091B900E817F90719F02191E5
:1016F0002111F0CF08951F93CF93DF93EC01162FA4
:1017000068EE73E00E9474170097C9F0FE012491FF
:101710002223A9F031968C0F9D1F34E82093BB0043
:101720003093BC002091BC0027FFFCCF2091B90072
:10173000E817F90721F0249131962111EFCF1123F9
:1017400061F08AE08093BB0084E88093BC008091C4
:10175000BC0087FFFCCF8091B900DF91CF911F9132
:101760000895ECEBF0E080818E7F8083109243023D
:1017700010924202109241021092400210923F02D7
:1017800010923E0210923D0210923C0210923B02D7
:1017900010923A021092BA0010820895ECEBF0E039
:1017A0008081856C80830895CF93DF93C82FD62FD7
:1017B00060911D010E945002C63009F460C050F0D3
:1017C000CA30C1F0CB3009F44AC0C93031F1DF91E1
:1017D000CF910895C330A1F1C530C9F7DD2309F4D5
:1017E00059C0DF3F09F4B3C083E284BD83E085BD07
:1017F000D8BDEDCFDD2309F48CC0DF3F09F498C0DC
:1018000081E28093800083E0809381006D2F70E0FF
:1018100070938B0060938A00DACFDD2309F46AC0ED
:10182000DF3F09F4ACC081E88093800083E08093BF
:1018300081006D2F70E07093890060938800C7CF9E
:10184000DD2309F449C0DF3F09F48BC081E28093B6
:10185000B00084E08093B100D093B400B8CFDD2312
:1018600069F1DF3F09F4A4C081E88093B00084E00F
:101870008093B100D093B300DF91CF910895DD2321
:1018800099F0DF3F09F48AC083E884BD83E085BD19
:10189000D7BD9DCF14BC15BC18BC60911E0185E05E
:1018A000DF91CF910C940E0214BC15BC17BC609153
:1018B0001E0186E0DF91CF910C940E021092B000D1
:1018C00082E08093B1001092B30060911E018BE022
:1018D000DF91CF910C940E021092B00082E08093C1
:1018E000B1001092B40060911E0183E0DF91CF91AE
:1018F0000C940E02109280001092810010928900C8
:101900001092880060911E0189E0DF91CF910C94C4
:101910000E02109280001092810010928B001092A3
:101920008A0060911E018AE0DF91CF910C940E0233
:10193000109280001092810010928B0010928A0009
:1019400060911F018AE0DF91CF910C940E0214BCCC
:1019500015BC18BC60911F0185E0DF91CF910C94FC
:101960000E021092B00082E08093B1001092B40099
:1019700060911F0183E0DF91CF910C940E021092D1
:10198000800010928100109289001092880060916E
:101990001F0189E0DF91CF910C940E0214BC15BC9D
:1019A00017BC60911F0186E0DF91CF910C940E026D
:1019B0001092B00082E08093B1001092B300609169
:1019C0001F018BE0DF91CF910C940E0287E880938A
:1019D0007A0080E480937C008AE090E00E94950386
:1019E00061E08DE00E94500260E08DE00C940E02F8
:1019F000CF93C82F8830C0F480917A0087FF18C039
:101A0000C064C0937C0080917A00806480937A00E7
:101A100080917A0086FDFCCF80917800209179003A
:101A200090E0922BCF91089580E090E0CF910895BF
:101A300087E880937A0080E480937C008AE090E0DD
:101A40000E94950361E08DE00E94500260E08DE00D
:101A50000E940E02D5CF80917A0087FF13C088ECD8
:101A600080937C0080917A00806480937A008091DA
:101A70007A0086FDFCCF809178002091790090E07B
:101A8000922B089587E880937A0080E480937C000D
:101A90008AE090E00E94950361E08DE00E94500290
:101AA00060E08DE00E940E02DACF80917A0087FF1D
:101AB00013C08EE480937C0080917A0080648093D0
:101AC0007A0080917A0086FDFCCF80917800209189
:101AD000790090E0922B089587E880937A0080E463
:101AE00080937C008AE090E00E94950361E08DE0A5
:101AF0000E94500260E08DE00E940E02DACFCF9289
:101B0000DF92EF92FF920F931F93CF93DF938C019D
:101B10006A017B0180917A0087FF2AC088EC80935C
:101B20007C0080917A00806480937A0080917A00B2
:101B300086FDFCCFC091780080917900D0E0D82B51
:101B40000115110549F020E030E0A901C701B601F7
:101B50000E94E51481111FC0CE0181529140DF9196
:101B6000CF911F910F91FF90EF90DF90CF9008954C
:101B700087E880937A0080E480937C008AE090E09C
:101B80000E94950361E08DE00E94500260E08DE0CC
:101B90000E940E02C3CFBE01601B710B80E090E07B
:101BA0000E948215A70196010E94E9140E94511516
:101BB000CB01D5CF1F920F920FB60F9211242F9306
:101BC0003F934F935F936F937F938F939F93AF93C5
:101BD000BF93CF93DF93EF93FF9380917A00877F3A
:101BE00080937A00E091CD02F091CE023097F1F02F
:101BF000809178002091790090E0922B09951092C5
:101C0000CE021092CD02FF91EF91DF91CF91BF9163
:101C1000AF919F918F917F916F915F914F913F9184
:101C20002F910F900FBE0F901F901895C091CB026F
:101C3000D091CC02209739F360917800809179009F
:101C400070E0782B8091080190910901681B790B55
:101C500080E090E00E9482152091040130910501FE
:101C600040910601509107010E94E9140E9451150C
:101C7000CB01FE0109951092CC021092CB02C3CF8A
:101C80001F93CF93DF93182FEB01883070F480916E
:101C90007A0087FF0FC080917A0086FD06C02091F0
:101CA000CD023091CE02232BE1F080E0DF91CF9185
:101CB0001F91089587E880937A0080E480937C00E8
:101CC0008AE090E00E94950361E08DE00E9450025E
:101CD00060E08DE00E940E0280917A0086FFDFCFE7
:101CE000E4CF2091CB023091CC02232BF1F6D0939C
:101CF000CE02C093CD02106410937C0080917A00D4
:101D0000886480937A00789481E0D0CFCF93DF937A
:101D1000EC0180917A0087FF0EC080917A0086FDE9
:101D200006C02091CD023091CE02232BB9F080E085
:101D3000DF91CF91089587E880937A0080E48093C3
:101D40007C008AE090E00E94950361E08DE00E94B3
:101D5000500260E08DE00E940E02DFCF8091CB0246
:101D60009091CC02892B19F7D093CE02C093CD026B
:101D700088EC80937C0080917A00886480937A005C
:101D8000789481E0D5CFCF92DF92EF92FF920F93BC
:101D90001F93CF93DF9300D0CDB7DEB78C016A01DC
:101DA0007B0180917A0087FF16C080917A0086FDC2
:101DB00006C04091CD025091CE02452B19F180E032
:101DC0000F900F90DF91CF911F910F91FF90EF90A7
:101DD000DF90CF90089587E880937A0080E4809325
:101DE0007C008AE090E029833A830E94950361E0B9
:101DF0008DE00E94500260E08DE00E940E023A8168
:101E00002981D3CF8091CB029091CC02892BB9F656
:101E10003093CC022093CB0201151105A9F020E0EC
:101E200030E0A901C701B6010E94E514882361F0E2
:101E30001093090100930801C0920401D09205019A
:101E4000E0920601F092070188EC80937C0080917B
:101E50007A00886480937A00789481E0B1CFCF9340
:101E6000DF93EC0180917A0087FF0EC080917A00A9
:101E700086FD06C02091CD023091CE02232BB9F011
:101E800080E0DF91CF91089587E880937A0080E425
:101E900080937C008AE090E00E94950361E08DE0F1
:101EA0000E94500260E08DE00E940E02DFCF809120
:101EB000CB029091CC02892B19F7D093CE02C0931C
:101EC000CD028EE480937C0080917A0088648093B8
:101ED0007A00789481E0D5CFFF920F931F93CF9330
:101EE000DF937FB7F894282F30E0A1E0B0E0AD0198
:101EF00002C0440F551F8A95E2F7CA01FA01E09526
:101F0000F095A90148505109ED0102C0CC0FDD1F29
:101F10004A95E2F7AE01C095D09589010E5011099E
:101F200002C0AA0FBB1F0A95E2F78D01009510951C
:101F30006894FF24F3F8283031050CF442C02E30A9
:101F400031050CF05FC085B19A01282B85B190E076
:101F50008C239D2367FD80C025B900000000000090
:101F60000000000085B90000000000000000000033
:101F70000000000000000000000000000000000061
:101F8000660FFA9401F77FBFDF91CF911F910F91F8
:101F9000FF9008954BB90000000000000000000011
:101FA0002BB900000000000000000000000000004D
:101FB000000000000000000000000000660FFA941E
:101FC00011F32BB1AC01422B2BB130E02E233F2378
:101FD00067FFE0CF4BB900000000000000000000E8
:101FE00000000000000000000000000000000000F1
:101FF0002BB90000000000000000000000000000FD
:102000000000DCCF253131050CF588B19D01282B6E
:1020100088B190E08023912367FD3AC028B9000081
:10202000000000000000000088B90000000000006F
:1020300000000000000000000000000000000000A0
:1020400000000000660FFA9401F79DCFFA9409F49E
:102050009ACFFA94D9F797CF25B900000000000075
:102060000000000000000000000000000000000070
:102070000000000085B90000000000000000000022
:10208000000000000000660FFA9409F05CCF7BCFDF
:1020900028B900000000000000000000000000005F
:1020A00000000000000000000000000088B90000EF
:1020B0000000000000000000000000000000C2CF8F
:1020C000A3E1B0E0E6E6F0E10C94A8147C011B016A
:1020D0006A01FC0117821682838181FF66C3BE01FB
:1020E0006F5F7F4F4B01F7019381F10193FD859164
:1020F00093FF81911F01882309F453C3853239F47A
:1021000093FD859193FF81911F01853239F4B701C9
:1021100090E00E947F1756016501E5CF10E0512C39
:1021200020E02032A0F48B3269F030F4803259F094
:10213000833269F420612CC08D3239F0803339F458
:10214000216026C02260246023C0286021C027FDB2
:1021500027C030ED380F3A3078F426FF06C0FAE099
:102160001F9F300D1124132F13C06AE0569E300DAF
:102170001124532E20620CC08E3221F426FD11C38F
:10218000206406C08C3611F4206802C0883641F401
:10219000F10193FD859193FF81911F018111C1CFC1
:1021A0009BEB980F933018F42061805E06C09BE98A
:1021B000980F933008F0AAC12F7E26FF16E02F73E8
:1021C000722E853621F4F22FF0647F2E08C08636F9
:1021D00021F4622F6068762E02C01111115077FE33
:1021E00007C01C3348F444244394410E27E00BC03D
:1021F000183030F4212F06C027E04CE3442E03C0F2
:1022000027E017E0412C560174E0A70EB11CF6013F
:102210006081718182819381042DA4010E949116B5
:102220006C01098100FF02C003FF06C071FC07C0FA
:1022300072FC08C0612C08C03DE2632E05C02BE291
:10224000622E02C090E2692E802F8C7099F1662078
:1022500011F084E001C083E0851510F0512C0BC013
:10226000581A73FC08C0B70180E290E00E947F1703
:102270005A94C9F7F3CF662029F0B701862D90E074
:102280000E947F1703FD03C00CE610E002C008E6C1
:1022900010E0F72DF0717F2EF8018491882309F466
:1022A00076C271108052B70190E00E947F170F5FD5
:1022B0001F4FF2CF77FE0FC04C0C04FF04C08A8181
:1022C000813309F44A94141474F5F8E0F41578F5A0
:1022D00088E0482E2CC076FC2AC0812F90E08C1517
:1022E0009D059CF06CEFC6166FEFD60674F0772D47
:1022F0007068772E0AC0E2E0F0E0EC0FFD1FE10FFE
:10230000F11D8081803319F411501111F4CF77FE43
:102310000EC044244394410E812F90E0C816D90684
:102320002CF41C1904C04424439401C010E077FE2F
:1023300007C01C141D043CF496012F5F3F4F05C0DD
:1023400025E030E002C021E030E0662011F02F5F90
:102350003F4F112331F0412F50E04F5F5F4F240F6B
:10236000351F452D50E02417350714F4521A01C0CB
:10237000512C872D897049F4552039F0B70180E23E
:1023800090E00E947F175A94F7CF662029F0B7019A
:10239000862D90E00E947F1773FC09C0552039F00C
:1023A000B70180E390E00E947F175A94F7CF77FE41
:1023B0005FC09C2D8D2DD7FE02C090E080E0692E7D
:1023C000782E40E050E0C601841991099D878C87E2
:1023D000960126193709280D391D812F90E0EE2727
:1023E000FF27E81BF90BFF87EE87FFEF6F167F06CD
:1023F00069F4B7018EE290E02B8B3A8B488B598BB6
:102400000E947F17598948893A892B89C614D704B5
:1024100054F06C857D85661577052CF4F901E40F81
:10242000F51F818101C080E371E0671A71084F5F79
:102430005F4FEE85FF856E167F066CF0B70190E06A
:102440002B8B3A8B488B598B0E947F172B893A89AB
:1024500048895989CACF6C147D0439F49A8196331E
:1024600018F4953311F404FF81E3B70190E04BC0F9
:102470008A81813309F00F7EB70190E00E947F17B7
:10248000111105C074FE18C085E490E017C0B701B3
:102490008EE290E00E947F1782E066246394680ECB
:1024A000F401E80FF11D8081B70190E00E947F17D1
:1024B000115041F3862DF1CF85E690E0B7010E94DF
:1024C0007F17D7FC05C0C114D10439F404FF05C03F
:1024D000D194C194D1088DE201C08BE2B70190E0A4
:1024E0000E947F1780E36AE0C616D1042CF08F5F4C
:1024F000FAE0CF1AD108F7CFB70190E00E947F171A
:10250000B701C601C0960E947F1741C1833631F0E2
:10251000833779F0833509F058C021C0560172E045
:10252000A70EB11CF6018081898301E010E06401EF
:1025300014C05601F2E0AF0EB11CF601C080D1808C
:1025400026FF03C0612F70E002C06FEF7FEFC6016E
:102550002B8B0E9474178C012B892F7715C0560185
:10256000F2E0AF0EB11CF601C080D18026FF03C09F
:10257000612F70E002C06FEF7FEFC6012B8B0E94CE
:1025800069178C012B892068722E23FD1AC0852DB6
:1025900090E008171907A8F4B70180E290E00E94C4
:1025A0007F175A94F4CFF60177FC859177FE8191DD
:1025B0006F01B70190E00E947F1751105A940150AB
:1025C00011090115110579F7E2C0843611F0893639
:1025D00051F5560127FF09C0F4E0AF0EB11CF6011A
:1025E00060817181828193810AC0F2E0AF0EB11CDB
:1025F000F60160817181882777FD8095982F022FE1
:102600000F7697FF08C090958095709561957F4FE4
:102610008F4F9F4F00682AE030E0A4010E94E1172D
:10262000C82EC8183EC0022F853721F40F7E2AE03D
:1026300030E01DC0097F8F3691F018F4883559F0CD
:10264000B0C0803719F0883711F0ABC0006104FFCB
:1026500009C0046007C024FF08C0066006C028E067
:1026600030E005C020E130E002C020E132E0560158
:1026700007FF09C0F4E0AF0EB11CF6016081718163
:102680008281938108C0F2E0AF0EB11CF601608137
:10269000718180E090E0A4010E94E117C82EC81863
:1026A0000F7706FF0BC0202F2E7FC11650F404FFBA
:1026B0000AC002FD08C0202F2E7E05C0DC2C202F72
:1026C00003C0DC2C01C0D12E24FF0DC0FE01EC0D97
:1026D000F11D8081803311F4297E09C022FF06C0DC
:1026E000D394D39404C0822F867809F0D39423FD29
:1026F00013C020FF06C01C2DD51418F4150D1D198C
:10270000D52CD51468F4B70180E290E02B8B0E94A1
:102710007F17D3942B89F5CFD51410F45D1801C021
:10272000512C24FF12C0B70180E390E02B8B0E9454
:102730007F172B8922FF17C021FF03C088E590E097
:1027400002C088E790E0B7010CC0822F867859F06C
:1027500021FD02C080E201C08BE227FD8DE2B701BE
:1027600090E00E947F17C11638F4B70180E390E033
:102770000E947F171150F7CFCA94F401EC0DF11DA0
:102780008081B70190E00E947F17C110F5CF5520DE
:1027900009F4C2CCB70180E290E00E947F175A94FE
:1027A000F6CFF7018681978102C08FEF9FEF639686
:1027B000E2E10C94C4140F931F938AE08093D0023B
:1027C00080E08093CF0280E069E00E94FB1304EF79
:1027D00011E004C08093CF020E943414C8010E940B
:1027E00002018091CF029091D002980F9B3580E03A
:1027F0008CF7892FEFCF1F93182F6E3008F02CC065
:102800006093D20290911601862F692F0E947B015E
:102810008AE51B3508F4812F8093D1029BE0899FC4
:10282000812D1124202D3327880F991F880F991F80
:10283000880F991F880F991F880F991F880F991F5C
:10284000880F991F880F991F822B932B88519C4FBB
:102850009093D5028093D40288EC90E069E574E10E
:102860000E9408011F9108959AE58B3508F4982F6E
:102870009093D1028BE0989F812D1124202D332736
:10288000880F991F880F991F880F991F880F991F0C
:10289000880F991F880F991F880F991F880F991FFC
:1028A000822B932B88519C4F9093D5028093D40216
:1028B00008958091D202609118010E947701809161
:1028C000D4029091D5020E9405018091D2026091BC
:1028D00017010E94770108951092B00082E0809362
:1028E000B100EEE6F0E08081816080830895A1E28E
:1028F0001A2EAA1BBB1BFD010DC0AA1FBB1FEE1F7A
:10290000FF1FA217B307E407F50720F0A21BB30BC4
:10291000E40BF50B661F771F881F991F1A9469F740
:1029200060957095809590959B01AC01BD01CF019C
:102930000895A29FB001B39FC001A39F700D811D98
:102940001124911DB29F700D811D1124911D0895B8
:102950002F923F924F925F926F927F928F929F92AF
:10296000AF92BF92CF92DF92EF92FF920F931F939D
:10297000CF93DF93CDB7DEB7CA1BDB0B0FB6F8944E
:10298000DEBF0FBECDBF09942A88398848885F848E
:102990006E847D848C849B84AA84B984C884DF80FF
:1029A000EE80FD800C811B81AA81B981CE0FD11DE3
:1029B0000FB6F894DEBF0FBECDBFED010895EE0F48
:1029C000FF1F0590F491E02D0994D9D008F481E01F
:1029D00008950CD00FC107D140F0FED030F021F4A3
:1029E0005F3F19F0F0C0511139C1F3C014D198F311
:1029F0009923C9F35523B1F3951B550BBB27AA2780
:102A000062177307840738F09F5F5F4F220F331FF1
:102A1000441FAA1FA9F333D00E2E3AF0E0E830D0BD
:102A200091505040E695001CCAF729D0FE2F27D0C0
:102A3000660F771F881FBB1F261737074807AB078E
:102A4000B0E809F0BB0B802DBF01FF2793585F4F03
:102A50002AF09E3F510568F0B6C000C15F3FECF31D
:102A6000983EDCF3869577956795B795F7959F5FC8
:102A7000C9F7880F911D9695879597F90895E1E01C
:102A8000660F771F881FBB1F621773078407BA077B
:102A900020F0621B730B840BBA0BEE1F88F7E095D6
:102AA000089504D06894B111D9C00895BCD088F0BD
:102AB0009F5790F0B92F9927B751A0F0D1F0660F2A
:102AC000771F881F991F1AF0BA95C9F712C0B13045
:102AD00081F0C3D0B1E00895C0C0672F782F882758
:102AE000B85F39F0B93FCCF3869577956795B39584
:102AF000D9F73EF490958095709561957F4F8F4FF3
:102B00009F4F0895E89409C097FB3EF490958095F7
:102B1000709561957F4F8F4F9F4F9923A9F0F92FA3
:102B200096E9BB279395F695879577956795B79521
:102B3000F111F8CFFAF4BB0F11F460FF1BC06F5F07
:102B40007F4F8F4F9F4F16C0882311F096E911C019
:102B5000772321F09EE8872F762F05C0662371F03A
:102B600096E8862F70E060E02AF09A95660F771F4E
:102B7000881FDAF7880F9695879597F90895990F2A
:102B80000008550FAA0BE0E8FEEF16161706E80737
:102B9000F907C0F012161306E407F50798F0621B58
:102BA000730B840B950B39F40A2661F0232B242B2D
:102BB000252B21F408950A2609F4A140A6958FEF4C
:102BC000811D811D089597F99F6780E870E060E09E
:102BD00008959FEF80EC089500240A9416161706B6
:102BE00018060906089500240A94121613061406FE
:102BF00005060895092E0394000C11F4882352F061
:102C0000BB0F40F4BF2B11F460FF04C06F5F7F4F18
:102C10008F4F9F4F089557FD9058440F551F59F0FF
:102C20005F3F71F04795880F97FB991F61F09F3FB9
:102C300079F087950895121613061406551FF2CFE2
:102C40004695F1DF08C0161617061806991FF1CF32
:102C500086957105610508940895E894BB27662759
:102C60007727CB0197F908958F929F92AF92BF92E9
:102C7000CF92DF92EF92FF92CF93DF93EC016881C6
:102C800079818A819B81611571058105910521F406
:102C900064E279ED8BE597E02DE133EF41E050E020
:102CA0000E943F1849015A019B01AC01A7EAB1E417
:102CB0000E945E186B017C01ACEEB4EFA50194019B
:102CC0000E946C18C60ED71EE81EF91EF7FE06C03D
:102CD00081E0C81AD108E10880E8F80AC882D982E0
:102CE000EA82FB82C701B6019F77DF91CF91FF9007
:102CF000EF90DF90CF90BF90AF909F908F9008950E
:102D00000E94341608958DE091E00E9434160895D3
:102D100060930D0170930E0180930F019093100149
:102D20000895283008F027E03327DA01990F311D84
:102D300087FD916000966105710539F432602E5F60
:102D40003D9330E32A95E1F708959F3F30F08038B6
:102D50007105610509F03C5F3C5F3D93913008F0DF
:102D60008068911DDF93CF931F930F93FF92EF9293
:102D7000192F987F9695E92F96959695E90FFF273D
:102D8000E651FF4F99273327EE24FF24A701E701DF
:102D900005900894079428F4360FE71EF81E491F83
:102DA000511D660F771F881F991F0694A1F7059084
:102DB000079428F4E70EF81E491F561FC11D770F10
:102DC000881F991F661F0694A1F70590079428F4A1
:102DD000F80E491F561FC71FD11D880F991F661F68
:102DE000771F0694A1F70590079420F4490F561F0A
:102DF000C71FD81F990F661F771F881F0694A9F752
:102E000084911095177041F0D695C79557954795C1
:102E1000F794E7941A95C1F7E0E9F0E0689415900B
:102E2000159135916591959105907FE27395E11823
:102E3000F10A430B560BC90BD009C0F7E10CF11E88
:102E4000431F561FC91FD01D7EF4703311F48A959D
:102E5000E6CFE894015030F0080F0AF4002702177B
:102E600008F4202F2395022F7A3328F079E37D93FD
:102E70002A95E9F710C07D932A9589F606949795CF
:102E80006795379517951794E118F10A430B560B80
:102E9000C90BD00998F023957E9173957A3308F089
:102EA00070E37C932013B8F77E9170617D9330F0CE
:102EB000839571E37D9370E32A95E1F71124EF90F8
:102EC000FF900F911F91CF91DF91992787FD9095EA
:102ED0000895FC010590615070400110D8F780956D
:102EE00090958E0F9F1F0895FC01615070400190D6
:102EF0000110D8F7809590958E0F9F1F08950F931E
:102F00001F93CF93DF93182F092FEB018B8181FD46
:102F100003C08FEF9FEF20C082FF10C04E815F8102
:102F20002C813D81421753077CF4E881F9819F0190
:102F30002F5F3F4F39832883108306C0E885F985CA
:102F4000812F0995892B29F72E813F812F5F3F4FD4
:102F50003F832E83812F902FDF91CF911F910F916F
:102F60000895AEE0B0E0E7EBF7E10C94B6140D89FC
:102F70001E898F89988D26E02C831A83098397FFF9
:102F800002C080E090E801979E838D83AE01455E8C
:102F90005F4F698D7A8DCE0101960E9460104D8140
:102FA0005E8157FD0AC02F813885421753070CF404
:102FB0009A01F801E20FF31F10822E96E4E00C94C0
:102FC000D214FA01AA27283051F1203181F1E89476
:102FD0006F936E7F6E5F7F4F8F4F9F4FAF4FB1E00C
:102FE0003ED0B4E03CD0670F781F891F9A1FA11D07
:102FF000680F791F8A1F911DA11D6A0F711D811D08
:10300000911DA11D20D009F468943F912AE0269FCC
:1030100011243019305D3193DEF6CF010895462F2B
:103020004770405D4193B3E00FD0C9F7F6CF462F0C
:103030004F70405D4A3318F0495D31FD4052419375
:1030400002D0A9F7EACFB4E0A69597958795779532
:103050006795BA95C9F700976105710508959B01B9
:10306000AC010A2E06945795479537952795BA9542
:10307000C9F7620F731F841F951FA01D0895052EA9
:1030800097FB1EF400940E94561857FD07D00E942B
:10309000771407FC03D04EF40C94561850954095C5
:1030A000309521953F4F4F4F5F4F089590958095F4
:1030B000709561957F4F8F4F9F4F08950E9499148F
:1030C000A59F900DB49F900DA49F800D911D11247C
:1030D0000895B7FF0C945E180E945E18821B930B34
:0630E0000895F894FFCFF3
:1030E600700088000000803F2101000407010000F5
:1030F60000030201000001000103020100010001BA
:10310600256C6400252E326600252E2A660073651E
:103116007420627974652C2073657474696E6720F7
:1031260063720077616974696E6720666F722054F6
:1031360057490054574920636F6D706C657465007C
:1031460067657474696E6720726567697374657202
:103156002076616C756520666F723A00676F742021
:1031660072656769737465722076616C75653A007D
:0C31760073656E64696E672E2E2E0000DB
:00000001FF
